:020000040000FA
:06000000020AA80202340E
:03002B000208F3D5
:0300330002070FB2
:030043000207A809
:0300530002016542
:03006B000206F595
:100083000201C90101FF01010503010F10FEFF3841
:1000930013381338133813F411EE113813312000C9
:1000A300000000F520000000000C0000000C00011F
:1000B30004FFFF0102007D05000000F0056400025B
:1000C3000200080000050207051E02051E020A0AB7
:1000D30003B80B02803E0102F1FF14102186700069
:1000E3007E4A4A4A4A4A7E0000000002FE01407FDF
:1000F30041417F41417F41417F40000000FC042496
:1001030024FCA5A6A4FC242424040080601F808072
:1001130042462A12122A2642C04000000000000074
:100123000000000000000000000000000036360060
:100133000000000000000000000000106002CC007E
:10014300003E2AAA2AAA2A3E0000000808FE01400F
:10015300424C407F407F4844424000965118000281
:100163000206C0E074F212044DA2AFE433FED2AF34
:10017300E5A7FFE5A1F5085F54106006121AF475B0
:10018300A1EFE5085F54086008121AFA75A1F78019
:100193002BEFA2E0C0D0E508A2E092F01209CF1540
:1001A3008182F05017906198E0F8900ACDE0C398EF
:1001B300A2D265D0335002E8F075A1FEEEA2E09220
:1001C300AF7F010204ACC0E074F212044DA2AFE4AD
:1001D30033FED2AF9061A4E0F8759B00E5915854CB
:1001E3000860087591F7121B42802AE59158541054
:1001F30060087591EF121B48801BE8A2E0C0D0E5B0
:1002030091A2E092F01209CF158182F05007E0C26B
:10021300E0F0121C8C9061A3E0F8E5E95854046007
:100223000E121C6275E9FB906193E0A2E640F28036
:100233008BC0E074F212044DA2AFE433FED2AF9050
:1002430061A5E0F8E5BF585404600675BFFB121CB6
:10025300A40201BFC3E498F8E499F9120298802636
:10026300C3E49AFAE49BFBE920E7E9120298E498D5
:10027300F8E499F922C3E498F8E499F9120298E4AE
:1002830098F8E499F9C3E49AFAE49BFB22EB20E79C
:10029300CFE920E7E0B90010BB0008E88AF084F852
:1002A300AAF022E4FBC8FA22EB70227B10C833C801
:1002B300C933C9335007C39AC3DBF280069A50018E
:1002C3002ADBEAC833F4C8C933F4C9FA2275F00843
:1002D300E4C833C8C933C933C99AC99B5004C92A6E
:1002E300C93BD5F0ECFBC833F4C8E4C9FA220808CB
:1002F30008EAC0E0EBC0E086F0E7A4FA180986F04C
:10030300E7A42AFA180986F0E7A42AFA180986F05E
:10031300E7A42AFA1986F0E7A4FBE5F02AFA1908FC
:1003230086F0E7A42BFBE5F03AFA190886F0E7A478
:100333002BFBE5F03AFA18180986F0E7A4C5F02B71
:10034300FBE43AFA1908E7C5F0C6A426F6E5F03B44
:10035300FBE43AFA1886F0E7A4F6E5F00826F6E49B
:100363003B08F6E43A08F6D0E0FBD0E0FA22E4CF0B
:10037300C0E0E4CEC0E0E4CDC0E0E4CCC0E075F082
:1003830020C3E633F608E633F608E633F608E63329
:10039300F6181818EC33FCED33FDEE33FEEF33FFA4
:1003A300C3EC9709ED9709EE9709EF9719191940CF
:1003B3000FFFEC97FC09ED97FD09EE97FE1919065F
:1003C300D5F0BEECF709EDF709EEF709EFF71919C8
:1003D30019D0E0FCD0E0FDD0E0FED0E0FF222518EC
:1003E300C582C0E0E51934FFC583C0E0E518C395B5
:1003F3008224F810AF0885831985821880088583C5
:1004030019858218D2AFCEF0A3E520F0A37808E6D1
:1004130008F0A3DEFAEFF0A3E58124FAF8E608F08A
:10042300A3E608F0A3E608F0A30808E608F0A3E6AD
:1004330008F0A315811581D0E0FED0E0F8158115F1
:10044300811581E8C0E0EEC0E022C0D02518C58246
:10045300C0E0E51934FFC583C0E0E518C3958224E5
:10046300F310AF0885831985821880088583198561
:100473008218D2AFC8F0A3E9F0A3EAF0A3EBF0A38C
:100483007908E709F0A3D8FAECF0A3EDF0A3EEF0B6
:10049300A3EFF0A3D0E0F0A3D0E0F0A3D0E0F0A36B
:1004A300E520F0A3E5F0F0A322851983851882E007
:1004B300C0E0A3E0F9A3E0FAA3E0FBA37808E0F629
:1004C30008A3DFFAE0FCA3E0FDA3E0FEA3E0FFA3A3
:1004D300E0C0E0A3E0C0E0A3E0F5D0A3E0F520A3F3
:1004E300E0A3F5F010AF088583198582188008858D
:1004F3008319858218D2AFD082D083D0E0F8D0E0C0
:1005030032120B0AB90003020546E4900301789402
:10051300790E8002F0A3D8FCD9FA901094AA82AB8A
:100523008390008678E079018015E493A3AC82ADD3
:10053300838A828B83F0A3AA82AB838C828D83D838
:10054300E9D9E77582517583DF740312086B7582ED
:100553003875831F740012086B75F0108E1A8F1B89
:1005630085821F85831E851882851983E0CEA3E0CB
:10057300CF851F82851E83EBC9EAC8EDCBECCAC3C6
:10058300E833C8E933C9EA33CAEB33CBC3EA9EF590
:100593001DEB9FF51CB35004AB1CAA1DEC33CCED33
:1005A30033CDD5F0DAAE1AAF1B22D083D082ECC0A4
:1005B300E0EDC0E0E493A3FCE493A3FDED4C600DF8
:1005C300120685EC24FFFCED34FFFD80EFE493A3DA
:1005D300FCE493A3FDED4C600D120753EC24FFFCE8
:1005E300ED34FFFD80EFD0E0FDD0E0FCE493A3C049
:1005F300E0E493C0E022851983851882E0A3FEE03E
:10060300A3F5207808E0A3F608DFFAE0A3FFE0A350
:10061300C0E0E0A3C0E0E0A3C0E0E0A3C0E0E0A34B
:10062300C0E010AF08858218858319800885821879
:10063300858319D2AFD083D082020871D083D08250
:10064300E9C0E0E493A3C386F0C5F095F0F908E4AC
:1006530093A386F0C5F095F0700BE493A3C3994080
:1006630005E9048002A3E475F002A42582F582E57E
:10067300F03583F583D0E0F9E493A3C0E0E493C0BD
:10068300E022C0E0C3E49396087401939618400FE8
:10069300E49366700808740193661870007019A3D8
:1006A300A3C3E49396087401939618A3A3400DD0B3
:1006B300E0D0E0D0E00205E9A3A3A3A3A3A3D0E085
:1006C300227404800474028000CCC0E0EDC0E0E535
:1006D30018C39CCCAD1950011D10AF068C188D1991
:1006E30080068C188D19D2AF1207EDD0E0FDD0E053
:1006F300FC22C0E074F212044DE589A2E15003121A
:1007030019C8758900C2C57F010204ACC0E074F248
:1007130012044DE58BA2E050031219C8758B00C279
:10072300E880E474028000CCC0E0EDC0E0E518C3CB
:100733009CCCAD1950011D10AF068C188D19800685
:100743008C188D19D2AF1207CBD0E0FDD0E0FC227C
:10075300C0E0C0F088F0E493667008087401936603
:10076300187000A8F0A3A3700BD0F0D0E0D0E0D0B5
:10077300E00205E9A3A3D0F0D0E022D083D082CC5D
:10078300C0E0E493A3600612082D1470FAE493A367
:10079300600612093D1470FAD0E0FCE493A3C0E0B4
:1007A300E493C0E022C0E074F212044DA2AFE4333C
:1007B300FED2AFC2C0E5D1A2E45003121A6AEEA280
:1007C300E092AF7F010204ACCAC0E0E493A3C58208
:1007D300CCC582C583CDC583F0A3C582CCC582C5F4
:1007E30083CDC583DAE5D0E0CA22CAC0E0E0A3C561
:1007F30082CCC582C583CDC583F0A3C582CCC58217
:10080300C583CDC583DAE6D0E0CA2270090808089B
:10081300226016181818C6C333C608C633C608C6DE
:1008230033C608C633C6D5E0EA22C0E0E493A3D3B7
:100833009C5010E493A3C39C400AD0E0D0E0D0E0E6
:1008430002079BA3A3A3D0E022C008C3E096F50848
:1008530008A3E096420808A3E096420808A3E0969E
:1008630045087001D3D00822C09FF59FE473D09F41
:1008730022D083D082C09FE493C0E0740193C0E090
:10088300740293F59F222518F58210AF08F51840DE
:100893000215198008F51840021519D2AF8519837E
:1008A300227404800A74038006740280027401C0F7
:1008B300E0F404120889D0E0120AE522C0D025181A
:1008C30010AF08F518500205198008F518500205F5
:1008D30019D2AFD0D022BB0102E722C082C08389E4
:1008E300828A83BB0003E08002E493D083D0822218
:1008F300C0E0C0D0E8C0E0E5A8D2AFC2C7A2E7928B
:10090300AFD0E0F8D0D0D0E0326016080808C6C3F4
:1009130013C618C613C618C613C618C613C6D5E021
:10092300EA22C3E0C696F608A3E0C696F608A3E05B
:10093300C696F608A3E0C696F622C0E0E493A36C3D
:100943007009D0E0D0E0D0E002079BA3A3D0E0225F
:10095300251810AF08F518400215198008F518403E
:10096300021519D2AF22E76670100809E766700A0C
:100973000809E76670040809E76622E06670100854
:10098300A3E066700A08A3E066700408A3E0662289
:10099300C3E09608A3E09608A3E09608A3E096A216
:1009A300D265D03322C3E096F008A3E096F008A303
:1009B300E096F008A3E096F022E026F008A3E036E4
:1009C300F008A3E036F008A3E036F022C0E0E8C068
:1009D300E0E58124FCF8E6A2E7D0E0F8D0E022E6E7
:1009E30047F60809E647F60809E647F60809E64721
:1009F300F622E026F608A3E036F608A3E036F6086A
:100A0300A3E036F622E627F60809E637F60809E6F4
:100A130037F60809E637F622E657F60809E657F6E9
:100A23000809E657F60809E657F622E056F608A342
:100A3300E056F608A3E056F608A3E056F622E05681
:100A4300F008A3E056F008A3E056F008A3E056F040
:100A530022700422600D18C6C333C608C633C6D538
:100A6300E0F41822E4C396F608E496F608E496F652
:100A730008E496F622C6F4C608C6F4C608C6F4C649
:100A830008C6F4C622C3E7960809E7960809E7965D
:100A93000809E79622C3E09608A3E09608A3E09628
:100AA30008A3E0962275D000758140751801751969
:100AB3000300020504E0F608A3E0F608A3E0F60845
:100AC300A3E0F622600C08C6C313C618C613C6D526
:100AD300E0F422E6F008A3E6F008A3E6F008A3E6B4
:100AE300F022CAC0E0E6F0A308DAFAD0E0FA22E086
:100AF300FAA3E0FBA3E0FCA3E0FD22EAF0A3EBF002
:100B0300A3ECF0A3EDF022E5C754F84401F5C7794F
:100B130001222518F582E43519F58322C2AF75D673
:100B23009F02000022120874D7DF02120874B9E092
:100B3300021208740EE3021208745BE402120874D2
:100B4300FEE40212087445E60212087463E6021218
:100B53000874462300120874582300120874AA2349
:100B6300001208740B2400120874952400120874F0
:100B73003925001208748D2500120874A625001269
:100B83000874CC25001208740726001208744B263B
:100B930000120874722600120874C3260012087427
:100BA3007327001208742B2800120874F32800120C
:100BB3000874B32900120874F729001208741C2A58
:100BC300001208745F2A00120874AC2A0012087419
:100BD300042C001208748A2C00120874A82C00122A
:100BE3000874D22C00120874EC2C00120874FB2C2D
:100BF30000120874062D00120874C62D0012087422
:100C03001F2E00120874E12E00120874E92E001240
:100C13000874AD2F0012087419300012087444319F
:100C230000120874693100120874DF31001208746D
:100C330071320012087431330012087450330012F9
:100C430008745F3400120874713400120874E134BC
:100C5300001208740B3500120874993500120874D9
:100C6300D235001208741E36001208743A37001287
:100C730008748339001208748E3900120874993984
:100C830000120874A43900120874AE3900120874F3
:100C9300B93900120874D33900120874DD3900120F
:100CA3000874E73900120874F239001208741A3A0A
:100CB30000120874753A001208747F3A001208741F
:100CC300A33A00120874C73A00120874253B0012B5
:100CD3000874693B00120874853B00120874FC3BDE
:100CE30000120874343C00120874803C001208742B
:100CF300DD3C00120874973D001208747B3F00121C
:100D03000874D43F001208740441001208742A4185
:100D130000120874B342001208742F4600120874BC
:100D2300014800120874CA4900120874774A001275
:100D33000874E24B00120874814C00120874C64C0C
:100D430000120874304D001208743F4D00120874ED
:100D5300C64F00120874785100120874E55100124E
:100D63000874C45200120874DD53001208745A55F3
:100D730000120874795500120874CE5500120874D5
:100D8300D35600120874FB5600120874535700120E
:100D93000874325800120874765800120874C15847
:100DA300001208742C59001208746D5A001208744A
:100DB300D15A001208741F5C001208747F5E00127F
:100DC3000874B05E00120874686000120874BD6095
:100DD30000120874C161001208745E620012087484
:100DE300B762001208746A63001208740C6400127C
:100DF3000874AC6400120874516500120874C78744
:100E0300011208740688011208744D8A01120874CD
:100E1300978A01120874B28B011208741A8C01129A
:100E230008744F8C01120874C38D01120874469024
:100E3300011208746F91011208740592011208746B
:100E43000D9B01120874A29B01120874899E011262
:100E530008747C9F01120874EA9F0112087430A180
:100E63000112087412A201120874F7A30112087484
:100E730008A60112087472A60112087444A701128D
:100E8300087472A7011208742FA80112087406A926
:100E930001120874CDA90112087471AA0112087411
:100EA3009AAA01120874BCAA0112087412AD0112A5
:100EB3000874EAAD011208742EAE0112087496AEDE
:100EC300011208744EAF0112087480AF0112087446
:100ED300C4AF01120874FAAF0112087446B00112CC
:100EE30008749BB001120874A0B001120874F3B027
:100EF3000112087418B10112087427B201120874A0
:100F03008BB201120874FBB20112087487B3011289
:100F1300087454B60112087438B701120874BBB8C8
:100F230001120874F1BA011208749FBB011208740C
:100F33004FBC0112087490BE0112087433BF011232
:100F430008747ABF0112087426C1011208743AC1E9
:100F53000112087444C1011208746CC101120874AF
:100F630078C10112087497C101120874B7C3011242
:100F7300087406C5011208744AC501120874F2C543
:100F830001120874D5C60112087480C701120874CF
:100F9300CCC801120874CAC90112087470CA0112BC
:100FA300087400CB0112087417CB011208744ECBDE
:100FB3000112087458CB0112087463CB0112087430
:100FC30081CB01120874C5CB0112087422CC011223
:100FD300087447CC0112087461CC01120874EDCC7B
:100FE300011208740ACE0112087477CE0112087434
:100FF3005ECF0112087485CF01120874F9CF011274
:10100300087474D00112087478D1011208746ED276
:10101300011208741DD30112087430D4011208742C
:10102300CCD40112087459D50112087437D60112B1
:1010330008746FD601120874C7D60112087490D7CA
:1010430001120874B1D70112087438D80112087458
:101053005CD8011208747ED801120874C7D8011233
:101063000874DDDA01120874C4DB0112087475DC3C
:1010730001120874ABDE01120874FBDE011208745E
:101083003BDF011208747DDF01120874D9DF0112FE
:10109300087407E0011208742BE0011208747EE063
:1010A30001120874ACE001120874E5E0011208743F
:1010B3003AE101120874A0E101120874F4E201128A
:1010C300087417E50112087484E501120874ADE58C
:1010D3000112087438E6011208749FE601120874BD
:1010E300EAE6011208740EE70112087432E70112EE
:1010F30008748DE701120874A8E70112087461E807
:1011030001120874BAFE03120874F9FE031208747C
:10111300788002120874BE80021208749E81021243
:101123000874A08202120874A383021208742F8524
:10113300021208748D85021208744A86021208741A
:10114300688702120874D98702120874158802127C
:1011530008746388021208746D8802120874B188D7
:10116300021208740D8902120874A8890212087405
:10117300258A02120874F48A021208748D8B0212F3
:101183000874AD8B02120874E38B02120874148C7A
:1011930002120874D58C02120874E58C02120874CA
:1011A300398D02120874548D02120874668D02126E
:1011B30008746F8D02120874C98D02120874258E8B
:1011C30002120874718E021208748C8E0212087453
:1011D300BD8E02120874DA8E02120874E68E0212B1
:1011E30008745A9002120874739002120874DA9009
:1011F30002120874ED9002120874FB900212087434
:10120300AF91021208749392021208749993021216
:1012130008742394021208742D94021208749A9489
:1012230002120874B19402120874E394021208744F
:101233001C9502120874469502120874A7950212AF
:101243000874C79502120874E595021208742B9668
:10125300021208745197021208749E9702120874BE
:10126300CD97021208744398021208746B98021205
:101273000874A49802120874B298021208740A99A6
:101283000212087459990212087498990212087488
:10129300C89902120874F49902120874FF99021291
:1012A30008741D9A02120874DF9A02120874E99AEC
:1012B300021208742A9B021208747F9B021208749C
:1012C300939B02120874A19C02120874B49C02122C
:1012D3000874C99C021208746B9D02120874EE9D77
:1012E30002120874AC9E02120874B79E02120874AC
:1012F300E39F02120874FF9F0212087451A00212A6
:10130300087490A002120874A5A00212087407A121
:101313000212087496A102120874E1A10212087461
:1013230032A402120874B0A40212087425A5021292
:10133300087447A7021208745FA70212087462A711
:10134300021208746EA70212087482A702120874AC
:101353008AA702120874BDA7021208746DA80212AC
:101363000874E3A80212087456A9021208740AAAA0
:1013730002120874BFAA02120874DEAA02120874C9
:1013830084AB02120874AFAB02120874B2AB021240
:1013930008741CAC0212087444AD021208741CAE2B
:1013A30002120874A7AE02120874C0AF02120874C6
:1013B3007DB002120874B6B002120874E7B00212CC
:1013C3000874A5B102120874D5B102120874B0B240
:1013D3000212087449B302120874D4B302120874D7
:1013E30085B40212087408B5021208743AB50212E1
:1013F30008747BB50212087405F5021208746AF5C5
:1014030002120874A7F502120874F6F502120874A2
:101413000CF802120874EFF90212087459FD021253
:10142300087494FD02120874B6FD0212087419FEC2
:10143300021208744DFE0212087470FE0212087440
:101443009DFE02120874F9FE02120874278D03121E
:101453000874A58D03120874DB8D03120874478E7C
:1014630003120874BA8F03120874D68F0312087418
:101473001B9003120874A9900312087402910312BB
:10148300087486D6021208744193031208749E935B
:10149300031208740A94031208746B9403120874F9
:1014A300AC94031208745995031208746B960312D3
:1014B3000874969603120874E19603120874289729
:1014C30003120874BA970312087475980312087408
:1014D30033F20312087463F203120874BBDF0212BF
:1014E300087419E20312087494E2031208749FE269
:1014F30003120874C0E203120874EC980312087410
:10150300F69803120874429903120874B0990312EF
:101513000874D19903120874819A03120874159DF3
:10152300031208741E9D03120874719D031208743C
:101533009A9D03120874019E03120874929E03126B
:101543000874D49E031208741E9F031208747D9FAF
:1015530003120874A99F031208743AA003120874B3
:1015630079A003120874B8A003120874EDA0031243
:101573000874FFA00312087411A10312087430A1A8
:101583000312087439A103120874EFA1031208743B
:101593002FA203120874B9FC0312087438EC031267
:1015A30008746EEC03120874B7EC0312087407EEA8
:1015B300031208749BE801120874DAE90112087433
:1015C30016EA01120874D5EB01120874FEEB01123E
:1015D300087491EE01120874D5EE011208745EF0DE
:1015E30001120874F6F0011208745EF10112087416
:1015F300FFF10112087441F20112087481F2011221
:1016030008740CF4011208747CF501120874A1F734
:1016130001120874CFF701120874F6F70112087467
:10162300FFF70112087486F801120874A4FB011273
:1016330008745380041208746980041208746FFEDE
:1016430003120874ECDB03120874FFDB0312087443
:101653009CDC03120874D7DC03120874F2DC031257
:10166300087417DD031208745CDD031208748DDD42
:1016730003120874BEDD0312087444DF03120874F6
:1016830001F70312087437F70312087453F70312B0
:10169300087495F703120874A5F7031208743AF84F
:1016A3000312087444F8031208745CF803120874F4
:1016B30012B30312087429B30312087442B303125A
:1016C300087421B403120874D1B40312087416B554
:1016D3000312087471B603120874F5B60312087482
:1016E3000080031208745580031208743E810312AC
:1016F3000874D781031208742182031208747E824E
:1017030003120874928203120874C48203120874C9
:10171300C28303120874068403120874218403121B
:101723000874708403120874868403120874938403
:1017330003120874C78403120874E0840312087444
:10174300AA850312087404860312087452860312CE
:101753000874748603120874EB88031208742089D2
:1017630003120874B08903120874258A03120874DB
:101773002A8A03120874668A03120874BC8A031245
:101783000874808B03120874A58B03120874AF8B43
:1017930003120874B28B031208743B8C031208748F
:1017A300568C03120874698C03120874A48C0312F8
:1017B3000874A78C03120874B28C03120874EE8C9D
:1017C3000312087422FE031208743AFE031208740B
:1017D30094AB03120874E3AB0312087485AD0312D0
:1017E300087443AF031208748BAF03120874ADB0CF
:1017F30003120874DEB10312087400B203120874F2
:101803005CB203120874DEB2031208749D65001201
:101813000874BE6500120874486600120874CD6629
:1018230000120874496700120874B2670012087442
:10183300FE67001208747D68001208740F690012B5
:1018430008749B6900120874DD6900120874496EFC
:1018530000120874C96F001208749F700012087494
:10186300CE7000120874B972001208743975001230
:101873000874F275001208740F7700120874667A00
:1018830000120874767A00120874D77B0012087469
:10189300637C001208748C7D001208747D7E001234
:1018A3000874FF7E001208748AE60212087444E783
:1018B30002120874B6E70212087452E8021208749E
:1018C300C2E8021208747BEB0212087452EC021293
:1018D3000874BFEC021208743CEE0212087406EF9F
:1018E3000212087476EF021208743FF102120874B0
:1018F30052F202120874EBF202120874B1F30212EC
:10190300087448D1031208749CD103120874F4D1EB
:10191300031208743FD203120874A1D2031208748D
:101923000DD303120874C0D30312087401D4031235
:10193300087417D40312087473D403120874B1D44F
:101943000312087452F00312087483F0031208742C
:101953003DF103120874A3F103120874ECDF0312C0
:10196300087478E10312087400800412087411806B
:1019730004120874E8F303120874F6F303120874EC
:10198300E87F001208748CFD031208749CFD031297
:101993000874B7FD0312087418FE03120874B7FB2A
:1019A300031208743CFC03120874A0FC03120874AD
:1019B300A5FA03120874C7FA0312087431FB031261
:1019C30008743CFB0312087480FB0312087413B9F8
:1019D3000312087421B90312087462B9031208745C
:1019E3007CB903120874F9B903120874F3BA031229
:1019F300087418BB0312087435BB0312087452BB76
:101A03000312087477BB031208749FBB0312087494
:101A1300E7BB0312087462BC0312087407BD031208
:101A2300087459BD03120874E2D403120874F0D485
:101A3300031208746AD5031208744ED6031208748D
:101A430007D803120874D9FF0112087418BE0312D1
:101A5300087484BE0312087443BF031208744DC094
:101A630003120874A6C10312087401C20312087496
:101A730056C2031208745FC20312087471C20312C0
:101A83000874DBC203120874EFC203120874F9C2AC
:101A930003120874CAC7031208741FC80312087418
:101AA3001BCA031208744DCA031208746FCA0312C7
:101AB300087488CA03120874A1CA03120874ABCB52
:101AC3000312087446CC03120874A0F503120874B9
:101AD300C4F503120874DDF50312087410F603123B
:101AE300087441F6031208746FF603120874D1F6F2
:101AF30003120874E0F603120874EAF6031208747A
:101B0300F7F603120874E5E4031208740BE50312F5
:101B1300087448E50312087457E50312087476E560
:101B230003120874DEE503120874E7E50312087470
:101B330046E6031208746AE60312087429E70312DF
:101B4300087436E70312087447E70312087447FF63
:101B53000312087464FF03120874BDCC03120874E3
:101B63001BCE0312087428CE031208743BCE031253
:101B730008745ACE0312087470CE0312087484CE0C
:101B830003120874F9CE031208745ECF03120874AB
:101B93000ED003120874E3D003120874F3D00312B7
:101BA300087402D1031208744CFF0212087470FF08
:101BB3000212087498FF02120874C0FF021208741C
:101BC30075E7031208749CE703120874BDE7031258
:101BD300087422E803120874DBE903120874F4E9B9
:101BE3000312087400EA0312087414EA0312087457
:101BF30032EA031208743CEA0312087446EA031239
:101C0300087459EA03120874ACEA03120874E5EA8B
:101C13000312087414EB0312087462EB03120874C2
:101C2300B1EB03120874CCEB03120874D6EB031266
:101C33000874E7EB031208742DEC03120874977F02
:101C43000012087458A20312087482A203120874C3
:101C53009EA203120874B1A203120874C7A203124E
:101C6300087424A30312087457A30312087493A7D8
:101C730003120874B9A803120874ECA803120874B9
:101C830038A90312087464AA031208748CAA0312F5
:101C93000874A1AA03120874B1AA03120874F5AA5E
:101CA3000312087456AB0312087466AB031208746C
:101CB3005FF8031208747AF803120874A3F8031286
:101CC3000874BDF803120874E2F80312087401F9EA
:101CD3000312087419F90312087447F903120874FC
:101CE30061F90312087403FF031208746CD803121A
:101CF300087473D8031208747FD903120874AFD918
:101D030003120874D5D903120874F8D9031208749E
:101D13001ADA0312087454DA03120874BADA0312D3
:101D23000874F3DA031208743FDB031208746CDBE4
:101D3300031208748CDB031208746AEE031208742E
:101D430082EE0312087470EF031208744FF003124B
:101D5300087492F90312087404FA0312087442FA1D
:101D63000312087483FA0312087425FC0112087421
:101D730044FC0112087493FC01120874AFFC0112B5
:101D83000874E0FC01120874EDFC01120874FAFCFB
:101D930001120874E6FD0112087424FE011208748E
:101DA30034FF011208743FFF0112087451FF01123E
:101DB30008745AFF0112087464FF011208740DC3FA
:101DC3000312087452C70312087460C7031208741D
:101DD300B9FF0312087483FF031208742B800412E3
:101DE3000874738004120874DAD50212087420D4BC
:101DF30002120874D0D10212087457D10212087467
:101E0300FED0021208748ED00212087465D002123A
:101E1300087445CE0212087411CE02120874DECD86
:101E230002120874C2CD02120874DBCC02120874C9
:101E330093CC02120874DECA021208745ECA02123C
:101E430008745BCA0212087458C90212087426C9BE
:101E53000212087463C8021208748EC60212087450
:101E63001FC602120874F1C5021208743FDF021282
:101E73000874F6DE02120874AEDE02120874FCDD8A
:101E8300021208746EDD02120874EEC502120874A1
:101E9300DBC50212087486C50212087461DD0212E2
:101EA300087475C50212087467C40212087431C439
:101EB30002120874DFC3021208745BDA0212087498
:101EC300B8F20312087480C3021208744FC30212DB
:101ED300087417C002120874D7BF02120874CBBF6C
:101EE300021208742BBF021208746BBE021208742C
:101EF300EDBB021208747EB9021208743CB90212D7
:101F0300087410B802120874C5B70212087404B733
:101F130002120874D7B6021208741AB602120874B1
:101F2300B0B502120874EAB502120874BDD70212E2
:101F330008742F920300000080FBE473000136361F
:101F43000101000102010001030100010401060671
:101F530005020000070100340801000F0904010114
:101F63000D0100FF0E08000017020000190100FF19
:101F73001A0100011B0100FE1C0100081D020000E4
:101F83001F01000120010001210200002301000FB5
:101F9300240200002601000127010008280200FF97
:101FA3002A0100072B0102402C0100002D01000132
:101FB3002E0100012F0100FF30010B1C310800002E
:101FC3003A0100083B01000F2F01000003027102D8
:101FD3003001600211027002010202020202800259
:101FE300100261023A00410063027302720262024C
:101FF300430200021302380000020002040212022C
:10200300000200020002000204020402370037004B
:102013003C02440200023900000200026502000291
:1020230035028102000205028202830200020300DC
:102033007100300160001100700031022003500470
:102043008000100061000000140063007300720040
:1020530062004300000013000600000000000400BB
:10206300120000000000000000000400040037001C
:1020730037003C024400000000000000000065003F
:10208300000035008100000005000000830000000F
:1020930003047104020460041104700402040204C2
:1020A30001040204100461040004140463047304AF
:1020B30072046204430400041304060400040004CD
:1020C3000404120400040004000400045104640026
:1020D3000004000400044404000400040004000499
:1020E30065040004350481046400050400048304CA
:1020F300000401037103010301030103010301034D
:10210300220302030103100300030003000300037F
:102113000003000300034203000324030603000338
:1021230000030403120325032303250323030403EA
:102133000403000300030003440300030003230319
:102143000003650321003503810300030503000336
:1021530000030003010171010101010111010101EA
:102163003101010101018001100161013B001400F3
:10217300630173017201620143010001130106014E
:102183003D013500040112010001000100010001BD
:1021930004010401330133013C01440132013600DF
:1021A3000001000165010001350081010001050105
:1021B30082018301000136000100060000000F00C8
:1021C30000000000000000000000000003FFFF000B
:1021D300000403FFFF0000FFFF0FF4010005C40428
:1021E3000320000100030B000000000000000003B7
:1021F300010F0000C018130060180100C01802008E
:102203002A18030030180400361805003C1806008D
:102213004818FFFF000001460E06760E08700E0BED
:10222300820E10C20D024C0E05640E07520E0C28CE
:102233000E0D3A0EFF000003EAF5E5D5D5C5B5A5A9
:1022430095958585757565655555454535352525BB
:102253001515054E127E1254125A1278126C12661C
:102263001284128A1290129C1260124812421200B7
:10227300160F00000B150B020002220F320000069E
:1022830038134A1350131812561312121E125211F6
:102293004C1188118E1182113A119213B013B61397
:1022A3009813A4139E13303016181920231A1C1EDA
:1022B300300C0E020B040B0A0708000F00383C3EDB
:1022C300363B3B352B432C303017181921301B1D5F
:1022D3001F300001191618161615230300000349B1
:1022E30048424D181725050286135C1362136E13BB
:1022F300681372129612AA13A212A8120204020100
:1023030001010109025E11641158119411000000CA
:102313000000006A117C1100BE040A0E00150004BF
:10232300007F00E8030C00280000000000090308F8
:10233300100C0A03080900040001FF1E1E0C05040B
:102343000F1008C082C0838A828B83E0D2E7F01229
:10235300178E0234BDC082C0837900122812125531
:1023630029C082C0839003341242AFD083D082C38A
:10237300E09CA3E09D500C125BFDFAA3E0122389BD
:102383006001090234BDFBEA75F00BA4FAA8F075ED
:10239300F00BEBA428FB900336E02AF8A3E03B887C
:1023A30082F583E0540F2274F71203E1890812289F
:1023B300121228B8ACF075F00BE9A42CF99003368F
:1023C300E028FEA3E039FF74016508600674026526
:1023D3000870208A828B831228A412358B740265BD
:1023E30008701B1227631228EB70138E828F83E40D
:1023F300F0800BEA2403FCEB122886122892EEFAF3
:10240300EFFB120B520234F574F41203E11265244C
:1024130079008E828F83E06076890A890B8065E577
:102423000A75F00BA4FAA8F075F00BE50B122396CE
:102433007046E50A75F00BA4F8AAF075F00BE50BEE
:102443001228CA8E828F83E0850882850983122928
:10245300AC850882850983A312358BEE2403FCEF38
:1024630012288F1234C4124FA3AA08AB09120B52BD
:1024730079019003341249B8E50A2401F50AE50B02
:102483003400F50B12276BE50A9AE50B9B4090028B
:10249300373574F51203E1EAFEEBFF740B120B15EB
:1024A3001234C9750A01EC4D602BEC126540ED1234
:1024B30055291235837901120B5EE5084509606FD2
:1024C300850882850983A312652E7902AA08AB09C0
:1024D300120B5E805AE5084509602B12552D123BFD
:1024E300F71234C51228D5700CEEFAEFFB120B6409
:1024F300E9F50A80CBEE2403FA12280D7031790333
:10250300EEFAEFFB80CA8E828F83A3E064FE700332
:10251300A3E0F4700BEE24030A0A0A12280D700CD0
:10252300EEFAEFFB120B64E9F50A8003750A00A9C2
:102533000A7F030205F974F71203E190033412359D
:1025430005EA4B602FEA75F00BA4FAA8F075F00BBF
:10255300EBA428FBEAFEEBFF1215A8900336123515
:10256300059003361247FD6012EEFCEFFD79001271
:10257300150C8007900336E4F0A3F00234F59003C2
:1025830034123F67C3EE98EF9922C082C083EC4DAB
:102593006005121D6480097C087D00790012150C0A
:1025A3000234BD74F61203E17900EA4B6018780037
:1025B3008808125870EB125BF960047901780808F7
:1025C300E8C3940840EA02359474F71203E174F304
:1025D300120953ECFEEDFF851882851983E4F0049C
:1025E300120B15EAF0A3EB124D297403120B15AC71
:1025F30082AD83EEFAEFFB120B76EEFAEFFB120BD2
:102603007C0234F074F71203E174F3120953ECFE05
:10261300EDFF851882851983E4F0EAFCEBFD740372
:10262300120B151229A57401120B1512357F8E8218
:102633008F8312358B74FE68700374FF69600479AD
:1026430001800279000234F074F71203E1EAFEEB31
:10265300FF1226A970141226B48E828F83E0F4F839
:102663008A828B83E058F0120B52A9080234F57466
:10267300F71203E1EAFEEBFF7508008E828F83E019
:1026830060221226A9701D1226B48A828B83E08FE2
:10269300838E82F8E058700CE0F88A828B83E048DE
:1026A300F0120B5280C4120B58E9F5087401650847
:1026B300221265391228BC1227FEFAA3E039FB2245
:1026C30074F41203E18A088B097C007D00122763EE
:1026D30012289212282312652B7900850882850916
:1026E30083A3E064FE7003A3E0F460717E007F00C7
:1026F3008062EEFAEF1223896057EEFAEFFBEA7578
:10270300F00BA4FAA8F075F00BEBA428FB900336AA
:10271300E02AF50AA3E03BF50B850882850983A32C
:10272300124C77850A82850B83A3E06A7003A3E0CA
:102733006B701EE50A2403FAE50B12280E700AE5F6
:102743000A2403FCE50B12288F122817790112556E
:102753003F12310212276BEE9AEF9B4095023735F9
:10276300EA24030A0A0AEB22900334125116C32205
:1027730074F31203E18A088B098A828B83A312659F
:102783002E12281212652B750C0012276312280EC5
:1027930070547E007F0080491227F0FAA3E0398A43
:1027A30082F583E0540F60361227F0F50AA3E0396F
:1027B300F50BE50A2403FCE50B1228993400FB1200
:1027C3001D5EE964017017850A82850B83A312518C
:1027D300D7A312358B122817750C0112553F1231EE
:1027E3000212258140B2A90C7F050205F9EEF8EF2C
:1027F300F9E875F00BA4F81227FE22AAF075F00B86
:10280300E9A42AF9900336E02822EF1228E52212E0
:10281300653FEB2212282312553AEEF0A3EFF02284
:10282300E508126540E5092274F51203E1EAFEEBBF
:10283300FF8E828F83A312652E7C007D00EE24031E
:102843000A0A0AEF122892EEFAEFFB120B58E9F587
:102853000A7401650A70291265391228B8AAF0753D
:10286300F00BE91228CA850882F5831228A41228DE
:10287300D5700DE5082403FCE50912288612289279
:102883000225323400FDEE2403FAEF221228993494
:1028930000FB120B76223400FDE5082403FAE50958
:1028A30022A31228A9221228AD22E0F8A3E0F98E70
:1028B300828F83A3221228BC223400F583123F6B3C
:1028C300E875F00BA4F822122804F508A3E039F503
:1028D3000922E8F0A3E9F0E5082403FAE509122840
:1028E300E5221228EB6401223400FB120B7CE9225F
:1028F30074F31203E174E6120953126524750C0193
:10290300750800750900750A00750B008518828526
:102913001983E4F0EE2403FCEF3400FD7403120B7F
:10292300151229A5E964017023740B120B151235D6
:10293300837401120B15124C7B7003A3E069605181
:10294300851882851983858208858309740D120B86
:1029530015E41229AC740E120B1512358B740D127B
:102963000B15AA82AB83120B9AE96401700B740DE9
:10297300120B1585820A85830B780A1208ACAC0802
:10298300AD09EEFAEFFB120B6A74021208BFE9F508
:102993000CEEFAEFFB120B94A90C741A1208BF0287
:1029A30027EB122C78120BA022123500123F67225C
:1029B300C082C083780079008003122AA312276B98
:1029C300E89AE99B5029E8FAE9FBEA75F00BA4FAC7
:1029D300ACF075F00BEBA42CFB900336E02AFCA3C0
:1029E300E03B8C82F583E0540F70CF79008002794D
:1029F300010234BDC082C083902320123FBDEC7519
:102A0300F012A4FCA8F075F012EDA428FD79FF7A6A
:102A13003C7B0B12150C0234BD74F71203E1E9FE83
:102A2300EAFF7A007B00780079008028E8FCE9FD62
:102A3300EC75F012A4FC85F00875F012EDA42508DE
:102A4300122EB8C39E400AE0FCEFC39C4003122F32
:102A5300D7122AA3122EAC40D30234F5C082C0830E
:102A6300780079008003122AA3122A97501F122E8E
:102A7300BCF470F2E875F012A4F8AAF075F012E94C
:102A8300A42AF9743C28FA740B39FB80047A007B7E
:102A9300000234BD902320122F6DC3E89AE99B22D4
:102AA300E8240108E93400F92274F01203E174F315
:102AB3001209538A0A8B0B8C0C8D0D8908EC450D7A
:102AC3006016AA0CAB0D120BEE8A0E8B0FAE0EAF77
:102AD3000FEE4F6003022B6A120BC48A0E8B0FA8F2
:102AE3000EA90FE8FEE9FFE849607C90232E122B24
:102AF300CC60227403650860067404650870167A56
:102B0300047903120BBE90232E122BE340077A00A5
:102B13007B00022BC990232C122BCC601B74016504
:102B230008600674026508700F7A027901120BBE01
:102B330090232C122BE350D68518828519837401B8
:102B4300F0120B15124FA3AC0CAD0D7403120B1541
:102B5300122C71740B120B151234D112396BE4124F
:102B63004F8B1210928004EE4F604A780074FF2559
:102B730008C39404500278048E828F83124FA38E6D
:102B8300828F83A3A3A3A3E508F0E88E828F83A398
:102B9300A3A3A3A3124FAB120290122F848E828F92
:102BA30083A3A3A3A3A3A3A3F0122F7B120AF2125E
:102BB3005523120AFE122BD14005901098E4F0120F
:102BC3000F6CEEFAEFFB023F711250C549227A04F3
:102BD3007900120BBE902320125BDFEA98EB992257
:102BE300122BFC758323758220E493C398F8A3E426
:102BF3009399F9C3EA98EB9922E493F8740193F952
:102C03002274F21203E174F31209538A088B09EC5C
:102C1300FEEDFF750A00EEFAEFFB120BEE8A0C8B4A
:102C23000DA80CA90DE849603E88828983E06508F8
:102C33007004A3E06509602F88828983A3A3A3A3FB
:102C4300E0C3940550211253D185188285198374EA
:102C530001F0120B151253D5EEFCEFFD7403120BAA
:102C630015122C71750A01A90A740D024A6F122CF0
:102C730078120BAC22AA82AB83120B76851882855D
:102C83001983AA82AB832274F61203E1122CC66065
:102C93000FA3A3A3A3E014C39404500479018002F7
:102CA300790002359474F61203E1122CC6600FA367
:102CB300A3A3A3E014C39402500479018002790012
:102CC300023594120BE88A828B83E5824583227452
:102CD300F61203E1122CC6600BA3A3A3A3E07004B6
:102CE300790180027900023594C082C083EAFCEB4B
:102CF300FD7A007B000234BAC082C0837C007D0071
:102D03000234BA74F41203E174F3120953EAFEEBCA
:102D1300FF8C0A8D0BC3EC94F8ED94FF4007EE4F44
:102D23007003022DBF750800750900802E85188277
:102D33008519837401F012312A120B151231386090
:102D4300137403120B15AC82AD83EEFAEFFB121D65
:102D53005EE97049E5082401122F58902320E412FC
:102D630050CDE50898E509995052E50875F012A48D
:102D7300F8AAF075F012E509A42AF9125C1260D4DE
:102D8300EE4F70A974FF650A700474FF650B60C48D
:102D930012311A650A7004A3E0650B70B7E5087574
:102DA300F012A4F508A8F075F012E509A428F509B6
:102DB300743C2508FA740B3509FB80047A007B0008
:102DC30002373074F41203E174F3120953750800E7
:102DD300120BEE8A0A8B0BAE0AAF0BEE4F602A85FD
:102DE300188285198374011234FAF8A3E0F9740B7D
:102DF300120B1512360E120B8E7C127D0079FFEE2C
:102E0300FAEFFB12150C750801122BD15009901023
:102E1300987401F0120F6CA90802373074F712038B
:102E2300E1E9FE74FE6A700374FF6B780079007049
:102E3300058052122AA3122EAC504AE8FCE9FDEC9D
:102E430075F012A4FCAFF075F012EDA42F122EB89A
:102E5300F460E0E8FCE9FDEC75F012A4FC75F012F7
:102E6300EDA42FFD743C2CF582740B3DF583E06AD1
:102E73007003A3E06B70BC8009122EBC14C39404CE
:102E83004017122AA3122A975018EE70EC122EBC88
:102E930064016005E0640370E912310BFAA3E0FBFF
:102EA30080047AFE7BFF0234F5902320123FC1C3D6
:102EB300E89CE99D2212300C22E8FAE9FBEA75F05E
:102EC30012A4FAACF075F012EBA42CFB74402AF5B3
:102ED30082740B3BF583E022120C000234BDC082E6
:102EE300C083790180F274F01203E18A0A8B0B7AB2
:102EF300047901120BBE8A0C8B0DEA450D603EEA84
:102F0300C333FAEB33FB1215A88A088B09AE08AF5B
:102F130009EE4F60237AFE7BFF120C0674FE6A7083
:102F23000374FF6B601B850882850983123505E5F1
:102F3300082402122F5880E1750C0080047E007F64
:102F430000850A82850B83E50CF0EEFAEFFB023F66
:102F530076E5082407F508E5093400F509229023EE
:102F630020123FC1C3EA9CEB9D22E493FA740193C0
:102F7300FB22121500740322125534E4F09087B03B
:102F830022E88E828F83A3A3A3A3A3A3A3A3122FB9
:102F9300A67401122FA6A3F0EE2410125537E4F005
:102FA300A3F022123977A3A3A322C082C0837A009D
:102FB3007B00800419122FD7122F615010122FF6A5
:102FC300C3940550F0E970EC122FE080047A007B83
:102FD300000234BDEA24010AEB3400FB22EA75F057
:102FE30012A4FA75F012EBA428FB743C2AFA740BB2
:102FF3003BFB22EAFCEBFDEC75F012A4FCA8F07598
:10300300F012EDA42812300C22FD74402CF58274CA
:103013000B3DF583E02274F71203E174F3120953B5
:103023007E007F000230BEE50875F017A4F8A9F012
:10303300125E73FAA3E0FBEEF8EFF9E875F012A461
:10304300F8ACF075F012E9A42C1231196A7003A3DD
:10305300E06B603FE50875F017A4F8AAF0EA125E8A
:1030630072F8A3E0F97401120B15E0687003A3E092
:10307300696020E50875F017A4F8EAF974B828FC2C
:10308300740C39FD7403120B15AA82AB83121D5EF7
:10309300E96014E50875F017A4F8A9F074B628FAE6
:1030A300740C39FB12109E0508902333E493F8E562
:1030B30008C398500302302A123102902320126170
:1030C300B95039EEF8EFF912310BF47003A3E0F4C1
:1030D30060E68518828519837401F0EEF8EFF9E84C
:1030E30075F012A4F875F012E9A42AF912312A1224
:1030F3000B1512313860C175080080AD0234F0EE53
:1031030024010EEF3400FF22E875F012A4F8AAF0B0
:1031130075F012E9A42AF912311E22743C28F582B3
:10312300740B39F583E022743E28F582740B39124F
:103133003F65740B22E8F0A3E9123616120BA6E9D9
:1031430022C082C08390033D745EF0A3740EF0909E
:10315300033F7458F0A3740EF09003437478F0A304
:10316300740CF00234BD74F71203E1EAFEEBFF9036
:103173000377E06408601BE0640460168E828F832B
:10318300E05403640170481234C4123A6CE06406DC
:10319300703D8E828F83A3A3E064FE7003A3E0F4EB
:1031A300602D8E828F83A3A312357F900368E0681E
:1031B3007003A3E069700BEE2415F582EF125BF93F
:1031C3006008120F0CE9F5088008120F1280F675DB
:1031D30008C2EEFAEFFB1215AE02266D74F4120369
:1031E300E18A088B098A828B83E0F8A3E0FAE82A54
:1031F300FAE43400FB1215A88A0A8B0BAE0AAF0B54
:10320300EE4F6063850882850983E0FC7D007900C9
:1032130012150C8E828F83A3A312652E120F4E8E6E
:10322300828F83A3A3A3A31235058508828509830F
:10323300E0F8EE28F8EF3400123587850882850917
:1032430083A3E0C0E0EE240D125526D0E0F0120F68
:1032530060EE240E125526E9124BD8E0C0E0EE24AE
:1032630011125526D0E0F0EEFAEFFB02373574F673
:103273001203E174EB120953EAFEEBFF1247FA6003
:10328300030233157A077B001215A8900339123510
:10329300051247FA60788E828F83120AF290033AFE
:1032A300123A6F120AFE1263F2C0E0123321D0E029
:1032B300F0EE2405FAEF3400FB8A088B098A82F5C5
:1032C30083E0C0E012331CD0E012372CE0C0E012E0
:1032D300331CA3D0E0123571120AF28518828519C6
:1032E30083120AFE88828983E0C0E07405120B15FD
:1032F300D0E0F0850882850983E0C0E07404120BF6
:1033030015D0E0F07407120B1512345780067910AC
:10331300800279017415023591123321A32290039F
:1033230039E0FAA3E0F5838A82A3A3A3A322C08290
:10333300C0831247FA600D90033912510490033988
:10334300E4F0A3F0120E7C12103E0234BD74F012AE
:1033530003E174EB120953ECFEEDFF8908742512A7
:103363000B15780C120AB87429120B15E0F9742A9C
:10337300120B15E0FC742B120B15E0FD740F697032
:1033830005740F6C60129010DEE06402700579C161
:10339300023452E9C39C40F6900378780C120AD6A3
:1033A300E50890037EF0E990037CF0ECA3F0ED9048
:1033B300037FF074FF6A700374FF6B701D9010E954
:1033C300E0F47003A3E0F4700512151E800C901056
:1033D300E91234DAE8F0A3E98007900375EAF0A371
:1033E300EBF0EE4F6017EEFAEFFB1210FEE964010B
:1033F300700BEEFCEFFD7A897B03121D649003686A
:10340300E4F0A3F090036BF0A3F0900388F0901026
:10341300DEE06402700890037C740FF0A3F0900365
:10342300777405F014120B15E4F0900378120AF286
:10343300851882851983120AFE90037EE0C0E0742A
:1034430005120B15D0E0F07407120B1512345774E4
:1034530015023F73E4123616121D8E22C082C083FA
:10346300900338E0700312185A120C48804CC08243
:10347300C083900338E09010977004E4F0802D74BB
:1034830001F0900338E0F460237C41E0C3944150A1
:1034930002E0FCECF8E0C398F0EC75F0E8A4CCA8EB
:1034A300F075F003A428FD7A80123FC97A977B1048
:1034B3007941121D7C8003120BF4D083D082020861
:1034C30071EE12553522E0F508A3E0F50922123416
:1034D300D5221228ADA322123F679003752274F7F9
:1034E3001203E1EB90037FF0120E6A8005740D1254
:1034F30008BF7F010205F9123500A3E022123571DE
:10350300A322EAF0A3EBF02274F71203E174F8129A
:103513000953EAFEEBFF7900900377E064087044F7
:1035230085188285198374FDF0A374FFF0120F4888
:103533007402120B151235057405120B15E41235BE
:1035430000E0C0E07404120B15D0E012356CC0E04B
:103553007406120B15D0E0F07407120B15E4123643
:1035630012120F8A74080234F2123571E022F08EBF
:10357300828F8322F085188285198322123F672266
:10358300E0F8A3E0F9125534E8F0A3E9F0221208B9
:10359300BF7F020205F9C082C0839003497408F01B
:1035A300A3740DF09003EF74E4F0A3740FF0900391
:1035B3004D743EF0A3740DF090034F7408F0A374A0
:1035C3000DF09003517444F0A3740DF00234BD74F4
:1035D300F41203E174F91209538A088B098C0A8DDA
:1035E3000B8518828519837808120AD67404120B86
:1035F30015E9F07405120B15E4F07406120B15E4CB
:10360300123612120C307407023732E8F0A3E912B3
:10361300361622123577AA82AB832274F41203E1A1
:103623008A088B098A828B83125542EE4F700302FC
:10363300372A9003121247FD60158A828B83A3A356
:10364300E0F9EEFAEFFB900313123A6F121F3D8E6F
:10365300828F83A3A3A3A3A3A3A3A3A3E064027062
:10366300748E828F83A3A3A3A3A3A3E05402700346
:103673000236FC850882850983A3A3E064E96079A7
:103683008E828F83A3A3A3A3A3A3A3A3A3A3E07067
:10369300149010E1E0048E828F83A3A3A3A3A3A3BA
:1036A300A3A3A3A3F08E828F83A3A3A3A3A3A3A304
:1036B300A3A3A3E01412372CA3A3A37404F09010C4
:1036C300E2124F7DE8F0A3E91260568B0BEA450B3B
:1036D3007003125A348E828F83A3A3A3A3A3A3A33D
:1036E300A3A3E0640260128E828F83A3A3A3A3A388
:1036F300A3A3A3A3E06406702E8E828F83A3A3A348
:10370300A3A3A3E0A2E0501F850882850983A3A396
:10371300E0F9EEFAEFFB121E1E8E828F83A3A3A3A2
:10372300A3A3A3E054FEF0800912397322740D128F
:1037330008BF7F040205F974EC1203E174DD12097A
:1037430053EAFEEBFF8C088D097437120B15780CC6
:10375300120AB8750A007405120B15AC82AD8312F8
:103763000B2E7412120B15E070087415120B15E072
:1037730060207405120B15E0A2E6501E8E828F8323
:10378300A3A3A3A3A3A3A3A3A3124C77120FC0E9DC
:1037930060087903121D4C0239597405120B15E0A8
:1037A300540C64047005750B018003750B00E0A2D3
:1037B300E55035750A01E50BA2E0402C120F4E8A45
:1037C300108B11A810A9111234C4E0687003A3E090
:1037D3006960157405120B15126535124C73121EB0
:1037E3002AE96004790480AC7405120B15E0A2E6A3
:1037F30050227406120B15E0540370187405120B53
:1038030015E0540C640C600CE0540C6408600575FE
:10381300100180037510007405120B15E05403F8B2
:10382300740268700C126535124C73120B40023926
:1038330059740168703AE510A2E0500312396174BB
:1038430005120B15A882A9837403120B15E8F0A3C4
:10385300E9123F5B85188285198312396BE0C0E05A
:103863007402120B15D0E0123612121F0E023959D0
:10387300E8600302395990035FE0640170108E829F
:103883008F83A3A3A3A3A3A3E070030237E7742248
:10389300120B157402123F5B741A120B1512358B3F
:1038A300E510A2E050087405120B15123961E50BFF
:1038B300A2E0506AEE240FF582EF125BF9C0E074C8
:1038C30017120B15D0E0F09003141247FD7003029A
:1038D3003959120F4E8A128B13A812A913741A1294
:1038E3000B15E0687003A3E069706B780C1208A4F1
:1038F300780A1208B078081208ACA910740C120BDD
:1039030015AC82AD837421120B15AA82AB8390038D
:1039130014123A6C121F3D74071208BF8038780CDA
:103923001208A4780A1208B078081208AC9003753C
:103933001206C8EE2412F582EF1259277423120BD4
:1039430015AC82AD83740E120B15AA82AB83121EC3
:103953001274091208BF74231208BF026021126592
:1039630035125112120B3422E8F0A3E912397322F3
:1039730012397722F08E828F83A3A3A3A3A3A3225A
:1039830074F71203E11217460234F574F71203E1D8
:1039930012174C0234F574F71203E112175802346C
:1039A300F5C082C0831217520234BD74F71203E1CB
:1039B30012175E0234F574F71203E17409120B1542
:1039C300E0F50878081208B012176A74010234F29D
:1039D300C082C0831217760234BDC082C08312171F
:1039E3007C0234BD74F71203E11217820234F574BA
:1039F300F71203E1EAFEEBFF89087401650870140E
:103A03007900120D8090233EE493FC7900EEFAEFE7
:103A1300FB120CF60234F574F41203E174F9120983
:103A230053E9FE8A088B098C0A8D0B7413120B154C
:103A3300124C779005B01247FD6027EE85188285FA
:103A43001983F07401120B157808120AD6EAF8EB01
:103A5300F97405120B1512360E9005B0123A6C125A
:103A63001F3D023609FB90034BE0F8A3E0F5838882
:103A73008222C082C0831217B20234BD74F71203CC
:103A8300E190109AE0F97E00800B125BE5540D641F
:103A9300017001190E123C795003E970ED0234F5FF
:103AA30074F71203E190109BE0F97E00800B125B28
:103AB300E5548D64817001190E123C795003E9704D
:103AC300ED0234F574F21203E1890BE975F006A4F3
:103AD300240CF508E5F0122F5C8A0CE508250CFA96
:103AE300E5093400FB1215A88A0C8B0DAE0CAF0D43
:103AF300EE4F6027AC08AD09790012150C1234C4DF
:103B0300E50BF0EE2508F8EF3509F98E828F83A3D4
:103B1300A3A3A3A3A3A3A3A312358BEEFAEFFB02E4
:103B23004A7274F61203E1EAFEEBFF120CD2901014
:103B330099E0F8E9C3984009900345124C77120CB9
:103B4300D8EE2402F8EF12528790034712514190A6
:103B53000347E004F0EEFAEFFB120CDE85088285E2
:103B63000983E002573DC082C083790090034580FA
:103B73000109124C778A828B83E582458370F202B6
:103B830034BD74F71203E1EAFEEBFFEE4F6056908B
:103B930003451247FD604E888289837A007B00EEDD
:103BA30065827003EF6583600FAA82AB83123BEBE0
:103BB300E5824583602F80E7900345123BF76870E9
:103BC30002EF698E828F83700812357F90034580E0
:103BD3000312603312358BEEFAEFFB121EDEEEFAA0
:103BE300EFFB1215AE0234F5123BEF22123F6B8846
:103BF30082898322123F67EE22C082C083900345ED
:103C03008004888289831247FD600B88828983122E
:103C130042AFEC4D70EC8A828B83E4F0A3F0E84969
:103C23006006888289838003900345123505023438
:103C3300BD74F71203E190034580048A828B8312DB
:103C43003C744B60257E0080010E123C7950ECEEF3
:103C530075F006A4FCADF0EA2CFCEB3DFDEC241062
:103C6300F582ED123CC970E180047A007B000234D6
:103C7300F5125116EA22123CD2EEC3982274F712BF
:103C830003E17D0080010D123CCEEDC3985034ED6D
:103C930075F006A4FEA8F0E8FFEA2EFEEB3FFFEE68
:103CA3002410F582EF123CC970DCED75F006A4FE1A
:103CB300E8FFEA2EFAEB3FFBEA2411F582EB125BF5
:103CC300F94CF00234F5125C056922123CD222123F
:103CD300653FEB3400F583E0F82274F61203E1123A
:103CE3000DF87A007B008025EAF8EBF9E875F00619
:103CF300A4F8ACF075F006E9A42C1250EB126400A2
:103D0300A3E41251E1F0A312640612657D90232807
:103D1300122BDB40D37A007B00801C8A088B09744A
:103D2300037808120A54124B9FA374FEF0A30412E3
:103D33004FC1A3E412657D902332123D7C40DC7AAF
:103D4300007B00801D8A088B0974037808120A54CB
:103D530074DE125871740F1260B874FEF0A304126B
:103D6300657D902338123D7C40DB90233CE49390A7
:103D73000353F0123D86023594E493F8C3EA98EBBB
:103D83009400227CE87D037A107B009003C2E0F963
:103D93001216622274F01203E174F51209538A08B1
:103DA3008B09890A8C0BE9A2E050147508FC75098C
:103DB300FFA2E15005D2E4023E59D2E3023E59127A
:103DC3004A5E7003A3E06970057900023F26AC0ADE
:103DD3007902AA08AB09120DD4E960EDE50AF50CE6
:103DE300780C1208B079027CFE7DFFAA08AB091299
:103DF30047D91208BFE96003023F24E50AC2E5F58B
:103E03000A9003B5E07051E50AA2E6404B74031231
:103E13000B15AC82AD83AA08AB09120B82E9703291
:103E23001240FA8A0C8B0DA80CA90DE8FEE9FFE8F5
:103E3300496025EE24020A0AEF1228EB601AEE24E9
:103E430002FCEF3400FD7403120B15AA82AB83123C
:103E53001D64E50AD2E5F50A900348E0F50C9003EA
:103E630068E0F50EA3E0F50F780E1208AC7D017C37
:103E730000900348E0F9AA0EAB0F120D8C740212E6
:103E830008BFE9F8900348E004F0E86003023F2428
:103E9300E50AA2E55004740E80027406C0E07401C2
:103EA300120B15D0E01255538A0E8B0FAE0EAF0FC7
:103EB300EE4F6069123F44123F5B8882898374012D
:103EC300F07478550AA3126545E50C126545A3E520
:103ED30008F0E509123F33E4F0E50AA2E5500F7458
:103EE30003120B15AC82AD83E82406123F2A8E829F
:103EF3008F83A3A374FDF0A374FFF0E50B6015900B
:103F0300233FE493F8E50BC3985009EE24131255AD
:103F130026E50BF0EEFAEFFB120C248006791080F5
:103F23000279C7740B8049FAE93400FB121D64223D
:103F330088828983A3A3A3A3123F3F221252BAA369
:103F430022EE24171255377401F0120F48EE241A8B
:103F5300125537EAF0A3EB22F01265393400123F11
:103F63006522F583123F6B22E0F8A3E0F922740D7A
:103F73001208BF7F080205F974F61203E17A007B89
:103F830010125A4160089003D47401F080299006FE
:103F930051E064019010DF7006E0FC79018004E0D9
:103FA300FC79037A007B00120CF6902326123FBDA6
:103FB3007A007B10123FCB023594123FC122E49367
:103FC300FC740193FD227B009003C2E0F912165C9E
:103FD3002274EC1203E18A088B098C0C8D0D890E77
:103FE3007414120B151249B87416120B15E0F51060
:103FF300A3E0F511120FC0E960077AFF7BFF0240CF
:10400300F79010DEE0640260030240EA7900AA0838
:10401300AB09120DDAA90E120DCE8A128B13AE1252
:10402300AF13EE4F70030240D28E828F83A3A3A3FC
:10403300A3A3E064018E828F83A3A37069124C77DC
:104043008E828F83A3A3A3A3A3A3E05418604390FA
:10405300233DE4938E828F83A3A3A3A3F0EA650C8D
:104063007003EB650D6014EA650A7003EB650B6082
:104073000AEA65107003EB6511701F78101208AC23
:10408300AC0AAD0BAA0CAB0D1210BC74021208BF24
:104093008008900367125A2BA3F074FE6A700374AE
:1040A300FF6B601D804EA3A3A3E0640360298E828F
:1040B3008F83A3A3A3A3A3E0640470057AFE023F46
:1040C300FF8E828F83A3A3A3A3A3E064027008904F
:1040D30003B4E0640270101240FA8B0BEA450B60E4
:1040E30006AA08AB09800DAA08AB09900349123A46
:1040F3006C121F3D0260219003751247DF1210807E
:104103002274F71203E1EAFEEBFF120BD6E9700A01
:10411300EEFAEFFB120BE2E96006EEFAEFFB800426
:104123007AFE7BFF0234F574F01203E18A0A8B0BEB
:104133008C0E8D0F8909750800120FC0E979006094
:10414300030242A1AA0AAB0B120DDAA909120DCE82
:104153008A0C8B0DAE0CAF0DEE4F60198E828F83E0
:10416300A3A3A3A3A3E0640270559003B4E0640285
:10417300700302429FAA0AAB0B90034F123A6C12D0
:104183001F3D120BE88A0C8B0DA80CA90DE8497092
:104193000302429F88828983A3A3A3A3A3E0A2E08F
:1041A300400302429F750C01A2E150687901AC0AF9
:1041B300AD0BAA0EAB0F120D26E9706402429F8E5F
:1041C300828F83A3A3A3A3A3E064037005750C02EA
:1041D30080528E828F83A3A3A3A3A3E06401600311
:1041E30002429F9003751242AF8E828F8312460460
:1041F3008A0C8B0DA80CA90DE84960D1902336E4F5
:1042030093FA88828983E0C39A50C2A3E0600302D1
:10421300429F80B988828983A3A3A3A3A3D2E1F099
:10422300EE4F603A8E828F83A3A3A3A3A3A3E0548C
:1042330018602B7508018E828F83A3A31206C8759D
:104243000CFE750DFF780C1208AC7900AC0AAD0BAF
:10425300AA0EAB0F120DEC74041208BF803E90033C
:1042630068E0650E7004A3E0650F701490233EE4CC
:1042730093FCA909AA0AAB0B120CF6750801801C62
:10428300A90CAC0AAD0BAA0EAB0F120D26E9700CEC
:10429300750801A909AA0AAB0B120D80A908023FF0
:1042A30076E50C2415F582E50D12553A124F972247
:1042B30074EA1203E174F01209538A0C8B0D8C0813
:1042C3008D097426120B15E0F514A3E0F51575128C
:1042D300069003F51247FD60239003751242AFAABF
:1042E30008AB091210AA8A108B11EA4511600D8AD6
:1042F300828B83A3E0700579000245ECE50C241D55
:10430300F50EE50D3400F50F850E821247E9F5131E
:1043130088828983A3A3A3E0FA88828983A3A3A3C2
:10432300A3E0F9EA2400FEE439FFAA08AB09120D61
:1043330086850E82850F83124627E029F50BE50A51
:10434300A2E5500375120E7487550A701774185539
:104353000A6418600FE50C2417F582E50D125BF96A
:10436300651260077901121D4C808C530A78C3EEE5
:1043730094F8EF94FF501D7900EEFAEFFB1245F627
:10438300601288828983A3A3A3A3A3A3E054186024
:10439300030242FA78081208AC7D0012461A12088A
:1043A300BFE9F874036870030242FAE86003024449
:1043B300657418550A700302451AE50AD2E0F50A36
:1043C300A2E45004D2E1F50AA90A124C701245F690
:1043D300605388828983A3A3A3A3A3A3E054186093
:1043E3004488828983A3A3A3A3A3E064017036E571
:1043F30010451160309003751242AF888289831291
:1044030046048A0E8B0FA80EA90FE849601788820D
:104413008983A3E0600F851082851183A312574817
:1044230050030242FAE50AF50E780E1208B012465E
:104433000D1208BFE9702B7C007D00851482851561
:104443008374FFF0A3F0850C82850D83A3A3A3A33C
:10445300A3A3A3A3E060031242A4A90B124C7012FE
:104463001770851482851583E0F47003A3E0F4606C
:10447300399003B4E0640270030242FA1249A9E0DE
:10448300FAA3E0123A68121F3DEA65087003EB6570
:104493000960030242FAEEFAEF123A68121F3D85F1
:1044A3001482851583EAF0A3EBF078081208AC7D3B
:1044B3000112461A1208BFA90AEEFAEFFB120DDA2F
:1044C3008A088B09A808A909900368E0687003A308
:1044D300E06960030245DDEEFAEFFB120BE88A08A0
:1044E3008B09A808A909E849606E88828983A3A378
:1044F300A3A3E06401600D88828983A3A3A3A3E03F
:1045030064027054851882851983AC82AD83EEFAF8
:10451300EFFB120B828055900361E0600FE50AF513
:104523000E780E1208B012460D1208BFE50AF50EFA
:10453300780E1208B079027CFE7DFFEEFAEFFB12D3
:1045430047D91208BFE960030244658514828515C3
:104553008374FFF0A30244AC120F48EAFCEBFD8521
:104563001882851983AA82AB83121D64850C828508
:104573000D83A3A3A3A3A3A3A3A3E06401700F12BA
:1045830042A47408120B15AA82AB83121D6412474E
:10459300B31253BF4430F50878081208B0740112FF
:1045A3000B1585820885830978081208AC740B12F1
:1045B3000B1585820885830978081208ACE513F585
:1045C3000878081208B07900EEFCEFFD124C701267
:1045D3000D2074061208BF0242FA1247B31255297E
:1045E300124627E50BF0120F6074101208BF7F0EFE
:1045F3000205F9120DCE8A0E8B0FA80EA90FE849FA
:1046030022A3A31251161210AA227901AC08AD09F4
:1046130012510B1247D922AC0BA91312510B120DD5
:104623008C7402221253C7A3A3A3A32274F0120310
:10463300E174F01209538A0C8B0DECFAEDFB750F44
:10464300089003F51247FD60141257418A828B8349
:10465300E58245836007A3E070030247AE1247B3C8
:1046630034001247E9F50B888289831247BCE0FBCB
:10467300EC2400FEE43BFF88828983A3A31247BC9A
:10468300A3A3E0FBECF508E43BF50988828983A347
:10469300A3A3A3A3A3A3E0F50EE50AA2E450037525
:1046A3000F10A2E550067408250FF50F748F550AF5
:1046B300700FE50C2417F582E50D125BF9650F60A9
:1046C300087901121D4C0247AE530A707800E50ABF
:1046D300A2E450221247B3125BF92408FCA3E0348E
:1046E30000FD7408120B15AA82AB83121D647808AF
:1046F300E50AC2E4F50AE50AA2E550281247B31217
:104703005BF928F8A3E03400F9E82408FCE9340055
:10471300FD851882851983AA82AB83121D64E50A7D
:10472300C2E5F50AAC0EA90BEEFAEFFB120D92E906
:10473300F87403686075900368E06E7003A3E06F1C
:10474300605EE87054E50AF50F780F1208B012475F
:10475300CA1208BFE97054780A1208B07401120B28
:104763001585820C85830D780C1208AC740B120B23
:104773001585820C85830D780C1208ACE50BF50AC0
:10478300780A1208B0A90EAC08AD09EEFAEFFB12D5
:104793000D2074061208BF8012740468700D80B770
:1047A300780A1208B01247CA1208BF7410023F7386
:1047B300E50C241DF582E50D22A3A3A3E0FC88826A
:1047C3008983A3A3A3A32279011249B012553A12F4
:1047D30047DF1247D922120D4A740122E0FCA3E0FD
:1047E300FDAA08AB0922F583123BEFA3E0F50A8883
:1047F300828983A3A3E0229003391251722274E8C1
:104803001203E174F5120953EAFEEBFF8C088D09DC
:1048130089147423120B15E0F50F7424120B15E0A1
:10482300F512A3E0F5137426120B15E0F516A3E0B9
:10483300F5177428120B15E0F50EA90F120D988ABF
:10484300108B117401120B157408F0E50EA2E450DD
:10485300037410F0E50EA2E55004E02408F0851877
:1048630082851983AA82AB83120FA88A0C8B0DEA67
:10487300450D7003024990EA2417F582EB1249A211
:10488300120F48E50C241AF582E50D12552912354D
:10489300057403120B15AC82AD83AA10AB11120B76
:1048A30082E9601D12499A7403120B15A882A98329
:1048B300E50C2418F582E50D125529E8F0A3E980EB
:1048C30024E50EA2E4501FE5106E7003E5116F702E
:1048D3001512499AE50C2418F582E50D125529E5C0
:1048E30012F0A3E513F01249A91249B8850A82F51B
:1048F300837402F0A3E50E1249C0E50FF0EE850ABA
:1049030082850B83A3A3A3F0EF850A82850B83A380
:10491300A3A3A31249C0A3A3A3E508F0E509850A4D
:1049230082850B83A3A3A3A3A3A3F0AA10AB1112A5
:104933000D86E92514850A82850B83A3A3A3A3A36C
:10494300A3A3F0750800E50EA2E45011AC12AD1359
:10495300E50A2408FAE50B123F2C750808E50EA2B8
:10496300E55014AC16AD17E50A2508F8E50B34003D
:10497300F9E82408123F2A850C82850D83A3A3E559
:1049830010F0A3E511F0AA0CAB0D120C24740B125A
:1049930008BF7F100205F9E50C2416F582E50D1218
:1049A300553A7401F0221249B012553A22E50C121D
:1049B3006540E50D22E0F50AA3E0F50B22F0850A38
:1049C30082850B83A3A32274F21203E18A088B0965
:1049D300ECFEEDFF890A7900124A5E7003A3E069D9
:1049E300700479018073750B01900368E0650870AA
:1049F30004A3E06509601F750B00780B1208B0A9CA
:104A03000AEEFCEFFDAA08AB09120FFC74011208B1
:104A1300BFE9F50B80417900EEFAEFFB120DCEEA08
:104A23004B602B8A828B83A3A3A3A3A3A3E0541875
:104A3300601C7508FE7509FF78081208AC8A828B22
:104A430083A3A31206C81263551208BF8009790114
:104A5300EEFAEFFB120CA8A90B8014120DDA8A0CE4
:104A63008B0DA80CA90D900368E068221208BF7F84
:104A7300060205F974F41203E175082675090E7A26
:104A83001012605D8B0BEA450B7003123D86900399
:104A930053E014F0700C90233CE493900353F01212
:104AA3000DE67E007F00806C850882850983A3A3C1
:104AB300A3A3E06059F46056E5082404F582E509F0
:104AC300125A257049850882850983A3A3A3A3A34A
:104AD300E06403701979028508828509831242AF65
:104AE300850882850983A3A3124C77120D268508B6
:104AF30082850983A3A3A3A3A3E0640160108508AF
:104B03008285098374FEF0A304124BD1E4F01231C1
:104B130002122F5490232A1261B9408C7E007F0029
:104B23008039120EEE8E088F0974037808120A5426
:104B3300749E2508FC740F3509FD7A327B0D120E25
:104B4300DCEA4B70DD8E088F0974037808120A546F
:104B5300124B9F126400E4F0123102902332E4936B
:104B6300F8C3EE98EF9400501B8E088F09740378F6
:104B730008120A54124BA7E82407F582E9125A25B2
:104B830070D680A17E007F00800A124BB2600214AF
:104B9300F01231021261B640F1023735124BA78889
:104BA30082898322749E2508F8740F3509F922EE51
:104BB300F8EFF9E875F006A4F8AAF075F006E9A491
:104BC3002AF9743E28F582740F39F583E022124BDB
:104BD300D8A3A3A322F0850882850983A3A3227403
:104BE300F71203E174E1120953ECFEEDFF750800BF
:104BF300EE4F60728A828B83E0241C125A5612474E
:104C0300FD60638A828B83124C77851882851983B2
:104C1300AC82AD83EA241BF582EB125927EA241CEC
:104C2300F582EB124C73120F30740B120B15124CEE
:104C33007B7003A3E069702E7402120B15E064010C
:104C43007024741D120B15123A6CE0640170177412
:104C53001D120B15123A6EA3A3E0F88E828F83E028
:104C6300687003750801A908741F0234F21249B071
:104C73003400F583125116221228A9E0682274F435
:104C83001203E1E97024790090034D123A6C121F6C
:104C93003D8A0A8B0BAE0AAF0B74FE6E700374FF72
:104CA3006F701A902339E4936013790190034D12C6
:104CB3003A6C121F3D8A0A8B0BAE0AAF0B120F6CB4
:104CC30002326A74F61203E174F312095312151EC9
:104CD3008A088B09AE08AF09900368E06E7003A3DE
:104CE300E06F60E9120F54EA6E7002EB6F60DEEE64
:104CF300FAEFFB120FC0E970D4EE4F60D085188233
:104D0300851983E4F004120B15EEF0A3EF124D297D
:104D1300E970BA74FE6E700374FF6F60B0EEFAEF61
:104D2300FB740D023591123616120B9A22C082C003
:104D330083120F6C0234BD7F0A0205F974F2120369
:104D4300E1EAFEEBFF8C0A8D0B8908740E120B153A
:104D5300E0F50974FC6E700374FF6F70057900024F
:104D63004A727900120DDA8A0C8B0DAE0CAF0D90DE
:104D73000368E06E7003A3E06F7006E509A2E650D6
:104D8300DCA909126243706179007AFE7BFF12622B
:104D9300437056741855097003024E7678007900F3
:104DA3008003122AA390232A122A9A4003024E76E2
:104DB300E8FAE9FBEA75F007A4FAACF075F007EB43
:104DC300A42CFB742C2AF582740E3BF583E0541853
:104DD30070D0E875F007A4F8AAF075F007E9A42AE3
:104DE300F9742628F8740E39F988828983A3A3A35A
:104DF300A3A3A3E054186009741855097003024D66
:104E03006088828983EEF0A3EFF074FE650A700474
:104E130074FF650B6003124F9D88828983A3A3A34C
:104E2300A3A3A3E509F0A2E0500D88828983A3A37D
:104E3300A3A3A3A3D2E2F07401650888828983A3A4
:104E4300A3A3A3A370387401124FC1E054186028C0
:104E530090233DE49388828983A3A3A3A3124F8B5A
:104E63001210AA8B0DEA450D6003024D607800799C
:104E73000080397902024D62900367E080D7E064D5
:104E8300017003024D6088828983A3A3A3A3A3A314
:104E9300E05418600790233DE4938004900366E098
:104EA300123F33E508F0024D60122AA3902333E446
:104EB30093FAC3E89AE994004003024D607A007BB9
:104EC30000804BEAFCEBFDEC75F007A4FCAEF0753B
:104ED300F007EDA42EFD74282CF582740E3DF583A6
:104EE300125542E8FCE9FDEC75F017A4FC85F009C6
:104EF30075F017EDA42509FD74B62CF582740C3DED
:104F0300F583E06E7003A3E06F609E122FD79023AA
:104F13002A122F6440AD123FBDEC6A7002ED6B7034
:104F230088E875F017A4F8AAF075F017E9A42AF930
:104F330074B628FE740C39FF7C177D007900EEFAF5
:104F4300EFFB12150C8E828F83124FA39003751201
:104F53004F7DA3A3A3A3A3A3E8F0A3E9124F8374F4
:104F630001F0EE240E1255267401124FAB1202907B
:104F7300EE240D125526E8024EA81234D5A3A3221F
:104F8300F0EE240F12553722F0124F94AA0AAB0BFE
:104F930022900375E0FCA3E0FD2288828983A3A30A
:104FA300E50AF0A3E50BF022F0124FB0229023366E
:104FB300E4932401F8E43400F97A027B0022123FDF
:104FC3003FA32274ED1203E18A088B09890E125064
:104FD300F4400579050250C21217B8AA08AB0912AA
:104FE30051C69023281250C5650A7003E9650B70FA
:104FF300077AFE7BFF1251C6902328E41250CDE5B9
:105003000A98E50B9940030250C01250D16012E593
:105013000A75F006A4F875F006E50B12511C12157B
:10502300AEE50E6018E50A75F006A4F8AAF075F06F
:1050330006E50B125148701A79010250C2E50A7550
:10504300F006A4F8AAF075F006E50B125129E4F076
:10505300A3F0E50A75F006A4F8AAF075F006E50BCF
:105063001250E9A31253D588828983A3AA82AB8302
:105073001251378A828B83E0603F1250D1603A8E9F
:10508300108F1175120078101208A8E50EC333FCB7
:10509300E433FDE50A75F006A4F50AA8F075F006F9
:1050A300E50BA428F50B7442250AF582740F350B22
:1050B300124C75122F751208BF790080027907020E
:1050C3006259122BFCE822902320125BE022E50AAE
:1050D30075F006A4F8AAF075F006E50B125124F852
:1050E300A3E0F9E84922A42A12527D88828983A386
:1050F30022ECFEEDFF902334E493F8E9C39822F504
:10510300831251161215AE22E50C126540E50D34DB
:1051130000F583E0FAA3E0FB22125124FAA3E0FB9B
:1051230022125129E022A42AF9744228F582740F2D
:1051330039F58322E50EF09010E012514122E08808
:10514300828983F0221252A1F50CE93400F50DE5B2
:105153000EC333FAE433FB1215A8850C82850D8345
:10516300EAF0A3EBF0850C82850D831251722212B3
:105173003F6BE8492274F41203E1ECFEEDFF740C7B
:10518300120B1512357F880889091251C6AC0AAD76
:105193000BECF8EDF99023281251CE5021E875F06D
:1051A30006A4F8AAF075F006E91250E9E08E828FA2
:1051B300831251E11251D712358B790080027904A1
:1051C300023735120D5C8A0A8B0B22122F6DC3EC4A
:1051D3009AED9B22123F678508828509832212522A
:1051E300B62274F61203E17E007F008028EEF8EF0A
:1051F300F9E875F006A4F8ACF075F006E9A42CF90B
:10520300744028F582740F125E646A7003A3E06B26
:1052130060571231021261B640D31261B17002E9D4
:105223006F704674FE6A700374FF6B703C7E007F80
:105233000080031231021261B6502E124BB270F38A
:10524300EEF8EFF9E875F006A4F81252731252A8BB
:10525300601712528FF8E912528788821251028521
:105263000882850983E4F0A3F0EEFAEFFB0235949C
:1052730075F006E912527B22A42AF9743E28F874C9
:105283000F39F9223400F98808890922EEF8EFF979
:10529300E875F006A4F875F006E91252A12212523D
:1052A3007BE8240422A3A374FE1252B31251722288
:1052B300F0A3041252BA22F088828983A3A3A3A382
:1052C3002274F61203E1EA241DF582EB1253BFF9AF
:1052D300604BEA241DF582EB125BF92402FCA3E088
:1052E3003400FD1250F840030253B2780080298C39
:1052F300828D83E0F508A3E0FFE5082400E43FF591
:1053030009E833FEE433FF74862EF582740F3FF50C
:10531300831253D51253B508E8C39940D28A828BBE
:1053230083A3A3A3A3A3A3A3A3A31242AF9003683E
:10533300E06C7003A3E06D700F7C867D0F12281262
:10534300124C73120D508067EA2411F582EB125B45
:10535300F9605CFC74FF2CF075080178081208B042
:1053630075088675090F78081208ACE9F5087808FE
:105373001208B0EA2412F582EB125BF9F5087808FB
:105383001208B0EA2415F582EB1255291206C8EC6F
:10539300F91228121242AC8A828B83A3A3A3A3A37C
:1053A300A3A3A3A3124C77120D6874071208BF02BC
:1053B3003594EC24020C0CED3400FD2212553A1204
:1053C30053C7E022E0F8A3E0F5838882A322888212
:1053D3008983E508F0A3E509F02274EA1203E17476
:1053E300FD1209538A148B158C0E8D0F890D7419B8
:1053F300120B15125542741B120B15E0F511741C98
:10540300120B15E0F50C741D120B151249B8741F1D
:10541300120B15E0F5106008E50CC3332404800279
:105423007402C0E07401120B15D0E01255538A08C0
:105433008B09EA4509700302551E8A828B83A3A355
:10544300E514F0A3E51512604CE50EF0A3E50FF0AB
:10545300EA2413F582EB125529E50DF0EA2414F53D
:1054630082EB125529E511F0EA2417F582EB125B62
:10547300F964017040120F4E8A0E8B0FA80EA90F0C
:10548300850882850983A3A3A3A3E0687003A3E02F
:10549300696022EE4F6011E508241AF582E50912CE
:1054A3005529EEF0A3EF800CE5082417F582E509F2
:1054B300125529E4F012552D1255428E828F8374B2
:1054C30005F0A3E5107004E50C80487401250C1267
:1054D300554C7A008028850A82850B83E012554853
:1054E300850A82850B83A3E08E828F83F0E50A24ED
:1054F30002F50AE50B3400F50BA30EAF830AEAC3EA
:10550300950C40D2120F4EEA125548120F4EEB8EF5
:10551300828F83F0AA08AB09120C2474030245EEB0
:10552300EE240CF582EF12553A2212282312553A33
:1055330022EE240BF582EF3400F58322900334E04E
:10554300FEA3E0FF228E828F83F0A3AE82AF83227D
:10555300123616120FA822C082C083E9C333FCE4BB
:1055630033FDEA2CFAEB3DFBEA24FEF582EB34FF34
:10557300124C750234BD74F21203E189098A0A12CE
:1055830050F440047900804075080080020508E566
:1055930008C39509502AE508C333F8E433F9EE2824
:1055A300F582EF39F583C082C083120F4E8A0C8BCC
:1055B3000DD083D082E0650C7004A3E0650D70CD3F
:1055C300E50A650870BE7901024A7274F01203E1BC
:1055D30074F31209538A088B098C0A8D0B890C7595
:1055E3000D00120FC0E9790060030256D0AA08AB80
:1055F30009120DDAA90C120DCE8A0E8B0FAE0EAF67
:105603000FEE4F70030256CE8E828F83A3A3A3A304
:10561300A3A3E0A2E240030256CE120F4EEA650AAC
:105623007003EB650B7011780D1208B0E4F50EF5FD
:105633000F780E1208AC8044AA0AAB0B120BDCE9FC
:10564300640170688518828519837404F0740112EB
:105653000B15124FA3851882851983AA82AB831277
:105663000B9AE964017045750D01780D1208B0E4D9
:10567300F50EF50F780E1208AC750D00780D1208B3
:10568300B0780D1208B07408120B1585820E85834D
:105693000F780E1208AC90233FE493F9AC0AAD0BDC
:1056A300AA08AB09120D6874071208BF8E828F8394
:1056B300A3A3A3A3A3A3E0A2E1400D8E828F83A3A0
:1056C300A3A3A3A3A3C2E2F0750D01A90D023F7129
:1056D30074F61203E1E9FE7900120DDAEEF9120D08
:1056E300CE8A088B09A808A909E8496006126587CC
:1056F300F98002790402359474F61203E17E07906F
:10570300035CE070341257418A088B09A808A90981
:10571300E8496025900361E0640188828983A3A33B
:10572300700B125748888289835001A3A3E0F912B2
:1057330010C8E9FEEE70027E07EEF9023594124FAF
:10574300941210AA22E0FA88828983A3E0C39A22E2
:1057530074EE1203E1EAFEEBFF890A8C0C8D0B74E5
:1057630012120B151234C912581D1250FB505189D5
:105773000E750F007403780E120A5474A4250EF5E7
:1057830082740F350FF583E0F8E50CC398502DE5CF
:105793000B602475110074037810120A54749E254B
:1057A30010F8740F3511F988828983A3A3A3A3A3E7
:1057B300A3E50C125827F07900024D3A790380F9DA
:1057C30079007AFE7BFF12581DE49365107004790B
:1057D3000280E6E50B60E0890E750F007403780E16
:1057E300120A54749E250EF8740F350FF9888289B6
:1057F30083A3EEF0A3EF125827124FC1E50C123F1B
:105803003B74FF126406E50AF0900366E088828920
:1058130083A3A3A3A3A3A3A3809C120DC8E9F5109C
:1058230090233222126549A3E508F0A3E509227407
:10583300F61203E1ECFF120DC89023321250FB5015
:1058430027890875090074037808120A5474A3128F
:105853005871740F1260B8E0F8EFC3985006EFF078
:1058630079008006790380027904023594EA2508D9
:10587300F5822274F41203E1EAFEEBFF120DC8E98C
:10588300F50A9023321250FB5019750B00740378FC
:105893000A120A5474A1250AF582740F350B124CAF
:1058A30075801890034B1247FD600CEEFAEFFB1264
:1058B3003A6F121F3D80047AFE7BFF02373574F680
:1058C3001203E18A828B83A3A3A3A3A3E4F0F8804A
:1058D3000108902338E493F9E8C399501E8808120D
:1058E300591F8C828D83A3A3A3A3A3A3A3A3E069BE
:1058F30070DFECFAEDFB120EF4801EE4936870196E
:105903008C828D83A3A3A3A3A3A3A3A3A37406F051
:105913007A008C828D83125A4A02359474262508A4
:10592300F5827410125C05F92274F41203E1EAFEA5
:10593300EBFF8E828F83A3A3E014125A61A3E0F9D5
:10594300120ED08A088B09EA45097003025A228E87
:10595300828F83A3A3E070358A828B83A3A3A3A33F
:10596300A3A3A3A3A3E064028A828B83A3A3A3A319
:10597300A3A3A3A3A360107406F07AF08508828B17
:1059830083125A4A025A227406F0025A228E828FD6
:1059930083A3A3A3A3A3A3E060738E828F83A3A394
:1059A300A3A3E0607AEE2403F582EF125A25706F09
:1059B300900355125A2B125A61E014126043E064AB
:1059C30003705C8E828F83A3A3A3A3E0700DAC0846
:1059D300AD09EEFAEFFB120D9E80448A828B83A3FE
:1059E300A3A3A3A3A3A3A3A37404F012151EEA54B1
:1059F3000F04850882850983A3A3A3A3F0A3E4F07E
:105A03007A20FB125A417017125A3480128A828B01
:105A130083A3A3A3A3A3A3A3A3A3E0640360AF02ED
:105A23003735125C0514F022E08E828F83A3A3A383
:105A3300227A207B009003C2E0F9121560221260E3
:105A43005F8B09EA450922E0240C125A56E0F91249
:105A53000E1622F8A3E03400F98882898322125AB1
:105A630066A322123571A3A3A32274F61203E1796C
:105A7300007E0080258E0875090074037808120AD9
:105A83005474DE2508FA740F3509FB8A828B83A3CD
:105A9300A3E06005120DA479010E902338E493F876
:105AA300EEC39840D0E9A2E07A407B009003C2E0C5
:105AB300F9501512166E8B09EA4509700E7C647D48
:105AC300007A40123D8C800312166802359474F4F8
:105AD3001203E1ECFEEDFF7508DE75090F7C008013
:105AE30045850882850983A3A3A3A3A3A3A3E0F801
:105AF300EA2412F582EB125BF968701F8508828530
:105B0300098312357F125BFD687003A3E069700B94
:105B1300850882850983A3A3E070200CE508240887
:105B2300F8E509125287902338E493F8ECC39840C0
