:020000040000FA
:06000000020B020202489F
:03002B0002093D8A
:0300330002075968
:030043000207F2BF
:030053000201792E
:03006B0002073F4A
:100083000201DD0101FF050301C810C810C810C833
:1000930010840F7E0FC810A31E00000000671F000E
:1000A3000000000C0000000C0001040000A8120076
:1000B30000000000006213000000000000000000C8
:1000C30000FFFF0101010037050000008805E80378
:1000D30064006400B801020200080000050207057D
:1000E3001E02051E0A03B80B020102F1FF021021D2
:1000F3008670007E4A4A4A4A4A7E0000000002FE99
:1001030001407F41417F41417F41417F40000000E9
:10011300FC042424FCA5A6A4FC242424040080605D
:100123001F808042462A12122A2642C04000000045
:1001330000000000000000000000000000000000BC
:1001430036360000000000000000000000001060D0
:1001530002CC00003E2AAA2AAA2A3E000000080870
:10016300FE0140424C407F407F484442400096514C
:10017300180002020612C0E074F2120461A2AFE496
:1001830033FED2AFE5A7FFE5A1F5085F5410600683
:100193001219C875A1EFE5085F540860081219CE5B
:1001A30075A1F7802BEFA2E0C0D0E508A2E092F0A2
:1001B300120A3F158182F05017906198E0F8900879
:1001C30061E0C398A2D265D0335002E8F075A1FE76
:1001D300EEA2E092AF7F010204C0C0E074F2120409
:1001E30061A2AFE433FED2AF9061A4E0F8759B0047
:1001F300E59158540860087591F7121A16802AE59C
:100203009158541060087591EF121A1C801BE8A2D4
:10021300E0C0D0E591A2E092F0120A3F158182F08E
:100223005007E0C2E0F0121B609061A3E0F8E5E93B
:10023300585404600E121B3675E9FB906193E0A2DB
:10024300E640F2808BC0E074F2120461A2AFE433A3
:10025300FED2AF9061A5E0F8E5BF5854046006757F
:10026300BFFB121B780201D3C3E498F8E499F91297
:1002730002AC8026C3E49AFAE49BFBE920E7E91287
:1002830002ACE498F8E499F922C3E498F8E499F904
:100293001202ACE498F8E499F9C3E49AFAE49BFBFC
:1002A30022EB20E7CFE920E7E0B90010BB0008E824
:1002B3008AF084F8AAF022E4FBC8FA22EB70227BCE
:1002C30010C833C8C933C9335007C39AC3DBF2809C
:1002D300069A50012ADBEAC833F4C8C933F4C9FAD1
:1002E3002275F008E4C833C8C933C933C99AC99B16
:1002F3005004C92AC93BD5F0ECFBC833F4C8E4C9A0
:10030300FA22080808EAC0E0EBC0E086F0E7A4FAA6
:10031300180986F0E7A42AFA180986F0E7A42AFA4E
:10032300180986F0E7A42AFA1986F0E7A4FBE5F09A
:100333002AFA190886F0E7A42BFBE5F03AFA190824
:1003430086F0E7A42BFBE5F03AFA18180986F0E7E4
:10035300A4C5F02BFBE43AFA1908E7C5F0C6A426B6
:10036300F6E5F03BFBE43AFA1886F0E7A4F6E5F08D
:100373000826F6E43B08F6E43A08F6D0E0FBD0E0C2
:10038300FA22E4CFC0E0E4CEC0E0E4CDC0E0E4CCA8
:10039300C0E075F020C3E633F608E633F608E6332B
:1003A300F608E633F6181818EC33FCED33FDEE339C
:1003B300FEEF33FFC3EC9709ED9709EE9709EF972B
:1003C300191919400FFFEC97FC09ED97FD09EE97FA
:1003D300FE191906D5F0BEECF709EDF709EEF7099A
:1003E300EFF7191919D0E0FCD0E0FDD0E0FED0E022
:1003F300FF222518C582C0E0E51934FFC583C0E09C
:10040300E518C3958224F810AF08858319858218EF
:100413008008858319858218D2AFCEF0A3E520F03A
:10042300A37808E608F0A3DEFAEFF0A3E58124FA47
:10043300F8E608F0A3E608F0A3E608F0A30808E648
:1004430008F0A3E608F0A315811581D0E0FED0E003
:10045300F8158115811581E8C0E0EEC0E022C0D017
:100463002518C582C0E0E51934FFC583C0E0E5184F
:10047300C3958224F310AF088583198582188008F9
:10048300858319858218D2AFC8F0A3E9F0A3EAF0F7
:10049300A3EBF0A37908E709F0A3D8FAECF0A3EDF6
:1004A300F0A3EEF0A3EFF0A3D0E0F0A3D0E0F0A32D
:1004B300D0E0F0A3E520F0A3E5F0F0A322851983B3
:1004C300851882E0C0E0A3E0F9A3E0FAA3E0FBA370
:1004D3007808E0F608A3DFFAE0FCA3E0FDA3E0FE62
:1004E300A3E0FFA3E0C0E0A3E0C0E0A3E0F5D0A356
:1004F300E0F520A3E0A3F5F010AF0885831985820A
:10050300188008858319858218D2AFD082D083D012
:10051300E0F8D0E032120B64B9000302055AE4900C
:10052300030178B8790A8002F0A3D8FCD9FA900CB9
:10053300B8AA82AB8390008678F479018015E4939E
:10054300A3AC82AD838A828B83F0A3AA82AB838C14
:10055300828D83D8E9D9E775829A758391740312E2
:1005630008B575820C75831E74001208B575F010FA
:100573008E1A8F1B85821F85831E8518828519839A
:10058300E0CEA3E0CF851F82851E83EBC9EAC8EDC9
:10059300CBECCAC3E833C8E933C9EA33CAEB33CB7C
:1005A300C3EA9EF51DEB9FF51CB35004AB1CAA1DBB
:1005B300EC33CCED33CDD5F0DAAE1AAF1B22D083BA
:1005C300D082ECC0E0EDC0E0E493A3FCE493A3FD90
:1005D300ED4C600D120699EC24FFFCED34FFFD8019
:1005E300EFE493A3FCE493A3FDED4C600D12079D90
:1005F300EC24FFFCED34FFFD80EFD0E0FDD0E0FC08
:10060300E493A3C0E0E493C0E022851983851882B4
:10061300E0A3FEE0A3F5207808E0A3F608DFFAE004
:10062300A3FFE0A3C0E0E0A3C0E0E0A3C0E0E0A339
:10063300C0E0E0A3C0E010AF08858218858319806D
:1006430008858218858319D2AFD083D0820208BB74
:10065300D083D082E9C0E0E493A3C386F0C5F095CC
:10066300F0F908E493A386F0C5F095F0700BE493DA
:10067300A3C3994005E9048002A3E475F002A4250D
:1006830082F582E5F03583F583D0E0F9E493A3C0E6
:10069300E0E493C0E022C0E0C3E4939608740193BE
:1006A3009618400FE49366700808740193661870F7
:1006B300007019A3A3C3E49396087401939618A337
:1006C300A3400DD0E0D0E0D0E00205FDA3A3A3A397
:1006D300A3A3D0E022D083D082C5F0E493A3C5F0D6
:1006E300C395F0F5F0E493A3C395F04005E5F0045A
:1006F3008001E475F002A42582F582E5F03583F5E7
:1007030083E493A3C0E0E493C0E022740480047400
:10071300028000CCC0E0EDC0E0E518C39CCCAD196D
:1007230050011D10AF068C188D1980068C188D1979
:10073300D2AF120837D0E0FDD0E0FC22C0E074F263
:10074300120461E589A2E1500312189C758900C265
:10075300C57F010204C0C0E074F2120461E58BA2FC
:10076300E0500312189C758B00C2E880E474028089
:1007730000CCC0E0EDC0E0E518C39CCCAD1950013E
:100783001D10AF068C188D1980068C188D19D2AFE9
:10079300120815D0E0FDD0E0FC22C0E0C0F088F0E4
:1007A300E4936670080874019366187000A8F0A3B8
:1007B300A3700BD0F0D0E0D0E0D0E00205FDA3A3FE
:1007C300D0F0D0E022D083D082CCC0E0E493A36009
:1007D300061208961470FAE493A3600612098714AC
:1007E30070FAD0E0FCE493A3C0E0E493C0E022C03D
:1007F300E074F2120461A2AFE433FED2AFC2C0E5EB
:10080300D1A2E4500312193EEEA2E092AF7F01029F
:1008130004C0CAC0E0E493A3C582CCC582C583CD1E
:10082300C583F0A3C582CCC582C583CDC583DAE574
:10083300D0E0CA22CAC0E0E0A3C582CCC582C5838A
:10084300CDC583F0A3C582CCC582C583CDC583DA6C
:10085300E6D0E0CA227009080808226016181818A2
:10086300C6C333C608C633C608C633C608C633C6AE
:10087300D5E0EA22C008C3E096F50808A3E0964253
:100883000808A3E096420808A3E09645087001D340
:10089300D00822C0E0E493A3D39C5010E493A3C3F5
:1008A3009C400AD0E0D0E0D0E00207E5A3A3A3D0A8
:1008B300E022C09FF59FE473D09F22D083D082C0F3
:1008C3009FE493C0E0740193C0E0740293F59F2208
:1008D3007404800A74038006740280027401C0E009
:1008E300F4041208EED0E0120B3F222518F5821013
:1008F300AF08F518400215198008F51840021519BC
:10090300D2AF85198322BB0102E722C082C083894B
:10091300828A83BB0003E08002E493D083D08222E7
:10092300C0D0251810AF08F518500205198008F536
:100933001850020519D2AFD0D022C0E0C0D0E8C011
:10094300E0E5A8D2AFC2C7A2E792AFD0E0F8D0D01B
:10095300D0E0326016080808C6C313C618C613C60B
:1009630018C613C618C613C6D5E0EA22C3E0C69656
:10097300F608A3E0C696F608A3E0C696F608A3E039
:10098300C696F622C0E0E493A36C7009D0E0D0E0F1
:10099300D0E00207E5A3A3D0E022251810AF08F5A5
:1009A30018400215198008F51840021519D2AF2214
:1009B300E76670100809E766700A0809E7667004BD
:1009C3000809E76622E066701008A3E066700A086B
:1009D300A3E066700408A3E06622C3E09608A3E0E0
:1009E3009608A3E09608A3E096A2D265D03322C36B
:1009F300E096F008A3E096F008A3E096F008A3E0E1
:100A030096F022E026F008A3E036F008A3E036F0E3
:100A130008A3E036F022E627F60809E637F60809C8
:100A2300E637F60809E637F622E026F608A3E036AD
:100A3300F608A3E036F608A3E036F622C0E0E8C0E5
:100A4300E0E58124FCF8E6A2E7D0E0F8D0E022E676
:100A530047F60809E647F60809E647F60809E647B0
:100A6300F622E657F60809E657F60809E657F608A8
:100A730009E657F622E056F608A3E056F608A3E087
:100A830056F608A3E056F622E056F008A3E056F027
:100A930008A3E056F008A3E056F022700422600D8C
:100AA30018C6C333C608C633C6D5E0F41822E4C358
:100AB30096F608E496F608E496F608E496F62260BD
:100AC3000D08C6A2E713C618C613C6D5E0F322C69F
:100AD300F4C608C6F4C608C6F4C608C6F4C622C3DC
:100AE300E7960809E7960809E7960809E79622C3F7
:100AF300E09608A3E09608A3E09608A3E096227583
:100B0300D00075814075180175190300020518E0BE
:100B1300F608A3E0F608A3E0F608A3E0F622600CCB
:100B230008C6C313C618C613C6D5E0F422E6F008F8
:100B3300A3E6F008A3E6F008A3E6F022CAC0E0E6C5
:100B4300F0A308DAFAD0E0FA22E0FAA3E0FBA3E08C
:100B5300FCA3E0FD22EAF0A3EBF0A3ECF0A3EDF09D
:100B630022E5C754F84401F5C77901222518F58217
:100B7300E43519F58322C2AF75D69F020000221215
:100B830008BECCB2011208BEC3B3011208BE12B62E
:100B9300011208BE65B7011208BE08B8011208BEEB
:100BA30053B9011208BE71B9011208BE3E590012B1
:100BB30008BE5059001208BEA259001208BE035ABB
:100BC300001208BE8D5A001208BE315B001208BE27
:100BD300855B001208BE9E5B001208BEC45B001258
:100BE30008BEFF5B001208BE435C001208BE6A5CCD
:100BF300001208BEBB5C001208BE6B5D001208BE8B
:100C0300235E001208BEEB5E001208BEC85F00122E
:100C130008BE4E60001208BE5D60001208BE686028
:100C2300001208BE7161001208BE8261001208BE84
:100C3300F861001208BE8A62001208BEE262001266
:100C430008BEA863001208BED963001208BE1E6462
:100C5300001208BE2B64001208BEBF65001208BE56
:100C63002267001208BE3E68001208BEA86A00127E
:100C730008BEB36A001208BEBD6A001208BEC86A85
:100C8300001208BED26A001208BEDC6A001208BE57
:100C9300E76A001208BEF26A001208BE236B001254
:100CA30008BE476B001208BE6B6B001208BED06B08
:100CB300001208BE146C001208BE306C001208BE8D
:100CC300A76C001208BEDF6C001208BE2B6D001269
:100CD30008BE886D001208BE6A6F001208BEF06F6E
:100CE300001208BEC170001208BED173001208BE04
:100CF3002674001208BE5274001208BE9E750012BC
:100D030008BEEE75001208BE4376001208BE447793
:100D1300001208BEDC77001208BE5E78001208BE1F
:100D2300FE78001208BE8921001208BEC2210012FB
:100D330008BE9C23001208BEDB23001208BE252434
:100D4300001208BECA24001208BE2925001208BEDC
:100D53005D25001208BECA25001208BEE726001250
:100D630008BEEF27001208BE8528001208BECC2B50
:100D7300001208BE752C001208BE512D001208BEC9
:100D8300B22D001208BECF2E001208BEF930001299
:100D930008BEB031001208BEBA31001208BEED31F0
:100DA300001208BEB432001208BE4F33001208BE50
:100DB300B433001208BEDD33001208BEFF33001245
:100DC30008BE2E36001208BE0537001208BE49378A
:100DD300001208BEB637001208BE7138001208BEF2
:100DE300A338001208BEE738001208BE1A390012F1
:100DF30008BE6F39001208BEC439001208BE583A43
:100E0300001208BEBA3A001208BE223B001208BE06
:100E1300CB3C001208BEB33D001208BEF53E0012E3
:100E230008BE2341001208BEE341001208BE12446B
:100E3300001208BEB544001208BEF344001208BEF7
:100E43009F46001208BEB346001208BEBD460012FC
:100E530008BEE746001208BEF346001208BE12475A
:100E6300001208BEC947001208BE0848001208BE97
:100E73001248001208BEC648001208BEC549001237
:100E830008BEBE4A001208BE5B4B001208BEFD4BF3
:100E9300001208BE144C001208BE4B4C001208BED0
:100EA300694C001208BEAD4C001208BED24C0012B1
:100EB30008BEB84D001208BE244E001208BE9E4E56
:100EC300001208BEAD4F001208BEEC50001208BE5F
:100ED3004E51001208BE0852001208BE2B520012D7
:100EE30008BEFF52001208BE4A53001208BE8C53BC
:100EF300001208BEE353001208BE1A54001208BEC3
:100F03004854001208BE8154001208BEA6540012B1
:100F130008BE2E55001208BE5157001208BEB05726
:100F2300001208BE4458001208BEB058001208BE92
:100F33000459001208BEA3FF021208BEE2FF021208
:100F430008BEB6BA011208BE10BB011208BE6CBBC4
:100F5300011208BEB8BB011208BED3BB011208BE02
:100F630004BC011208BE21BC011208BE2DBC011233
:100F730008BEA1BD011208BEBABD011208BE21BE42
:100F8300011208BE34BE011208BE42BE011208BEE1
:100F9300F6BE011208BEDABF011208BEE0C001129C
:100FA30008BE66C1011208BE70C1011208BEDDC1D0
:100FB300011208BEF4C1011208BE26C2011208BE06
:100FC3005FC2011208BE89C2011208BEEAC2011241
:100FD30008BE0AC3011208BE28C3011208BE6EC3AD
:100FE300011208BE94C4011208BEE1C4011208BE76
:100FF30010C5011208BE86C5011208BEAEC5011296
:1010030008BEE7C5011208BEF5C5011208BE4DC6EC
:10101300011208BE9CC6011208BEDBC6011208BE3F
:101023000BC7011208BE37C7011208BE42C701121F
:1010330008BE60C7011208BE22C8011208BE2CC830
:10104300011208BE67C8011208BE7DC8011208BE9E
:1010530086C8011208BEDBC8011208BEEFC8011220
:1010630008BEFDC9011208BE10CA011208BE25CA76
:10107300011208BEC7CA011208BE4ACB011208BE3C
:1010830008CC011208BE13CC011208BE39CD0112DF
:1010930008BE55CD011208BEA7CD011208BEE6CD8C
:1010A300011208BEFBCD011208BE3DCE011208BEDF
:1010B3008AD0011208BE08D1011208BE7BD10112E9
:1010C30008BE9DD3011208BEB5D3011208BEB8D322
:1010D300011208BEC4D3011208BED8D3011208BE40
:1010E300E0D3011208BE13D4011208BEC3D4011207
:1010F30008BE39D5011208BEACD5011208BE60D6B0
:10110300011208BE15D7011208BE34D7011208BE5A
:10111300D4D7011208BEE0D7011208BE0BD80112C2
:1011230008BE0ED8011208BE78D8011208BEA0D995
:10113300011208BE78DA011208BE03DB011208BEF1
:101143001CDC011208BED9DC011208BE12DD01123B
:1011530008BE43DD011208BEE3DD011208BE13DE43
:10116300011208BEEEDE011208BE87DF011208BEBF
:1011730012E0011208BEC3E0011208BE45E10112EC
:1011830008BE77E1011208BEB8E1011208BE71D2B0
:10119300021208BED6D2021208BE13D3021208BE30
:1011A30062D3021208BE78D5021208BE5BD70212C0
:1011B30008BEC5DA021208BE00DB021208BE22DB3B
:1011C300021208BE85DB021208BEB9DB021208BE9A
:1011D300DCDB021208BE09DC021208BE65DC021267
:1011E30008BE5BBC021208BED9BC021208BE0FBD0A
:1011F300021208BE7BBD021208BEEEBE021208BE7A
:101203000ABF021208BE4FBF021208BEDDBF0212A0
:1012130008BE36C0021208BE63C1021208BE75C200
:10122300021208BED2C2021208BE3EC3021208BE98
:101233009FC3021208BEE0C3021208BE8DC402128D
:1012430008BE9FC5021208BECAC5021208BE15C653
:10125300021208BE5CC6021208BEEEC6021208BE27
:10126300A9C7021208BEB4A5031208BEE4A503125F
:1012730008BE39A6031208BE55AC031208BE66ACFD
:10128300031208BEB7AC031208BEFCAC031208BEBF
:10129300A6AD031208BED3B4031208BE21A90312DC
:1012A30008BE79AA031208BE20C8021208BEC5C828
:1012B300021208BEE5C8021208BE05C9021208BE22
:1012C30019C9021208BE71C9021208BEA1C90212CD
:1012D30008BE22CB021208BEC8CB021208BEAACC9B
:1012E300021208BEFBCC021208BE3ECD021208BE9B
:1012F30081CD021208BEE7CD021208BE08CE02124B
:1013030008BE94CE021208BEC5CE021208BE39CF63
:10131300021208BEE7D0021208BEC1D1021208BEF3
:1013230003D2021208BE5DD2021208BED2FD02121F
:1013330008BEF3FD021208BE29FF021208BE53FFC6
:10134300021208BE6294031208BEDD94031208BEA3
:10135300E894031208BE0995031208BE1EB00212D8
:1013630008BE21B0021208BEDBB0021208BE06B1ED
:10137300021208BE4DB1021208BE72B1021208BEBB
:1013830093B1021208BEC7B1021208BE00B2021224
:1013930008BE29B3021208BE60B3021208BE80B3AE
:1013A300021208BE1BB4021208BEE0B4021208BE49
:1013B30017B5021208BE8CB6021208BE2FB702126E
:1013C30008BE28B8021208BE51B8021208BEA5B85A
:1013D300021208BE6BB9021208BE99B9021208BE06
:1013E3002EBB021208BEAFBB021208BEE2BB021242
:1013F30008BE3BF6011208BE45F6011208BE91F67F
:10140300011208BEFFF6011208BE20F7011208BE42
:1014130087A9011208BEE7F7011208BE7BFA011281
:1014230008BE84FA011208BED7FA011208BE00FBF7
:10143300011208BE67FB011208BEF8FB011208BEC9
:101443003AFC011208BE84FC011208BEE3FC01123F
:1014530008BE74FD011208BEB3FD011208BEF2FD01
:10146300011208BE27FE011208BE39FE011208BE92
:10147300B0B2011208BE6AFE011208BE73FE011269
:1014830008BE29FF011208BE69FF011208BE47F911
:10149300021208BE1AFA021208BE34FA021208BE79
:1014A30045FA021208BE5AFC021208BE79FC021267
:1014B30008BE7BA3031208BEB1A3031208BEFAA39E
:1014C300031208BE4AA5031208BEEDE1011208BECD
:1014D3002CE3011208BE68E3011208BE27E50112DE
:1014E30008BE50E5011208BEE3E7011208BE27E873
:1014F300011208BEB0E9011208BE48EA011208BE93
:10150300B0EA011208BE51EB011208BE93EB0112BF
:1015130008BED3EB011208BE5EED011208BECEEE8B
:10152300011208BEF3F0011208BE21F1011208BE38
:1015330048F1011208BE51F1011208BEACF10112CB
:1015430008BE3FF2011208BE5DF5011208BEDEF5CA
:10155300011208BEE3FF011208BEB27F001208BEEB
:10156300228B031208BE358B031208BED28B0312E3
:1015730008BE0D8C031208BE288C031208BE4D8CC6
:10158300031208BE928C031208BEC38C031208BE5A
:10159300F48C031208BE7A8E031208BE1EAF031228
:1015A30008BE54AF031208BE70AF031208BEB2AF39
:1015B300031208BEC2AF031208BE57B0031208BE1F
:1015C30061B0031208BEB179001208BEC8790012D7
:1015D30008BEE179001208BEC07A001208BE707B13
:1015E300001208BEB57B001208BE107D001208BEB3
:1015F300947D001208BE8FA0021208BEE7A002125B
:1016030008BE91A1021208BE39A2021208BE96A218
:10161300021208BEEFA2021208BE03A3021208BE02
:10162300CDA4021208BE48A5021208BE72A502127A
:1016330008BE2FA7021208BE4AA7021208BE99A726
:10164300021208BEAFA7021208BEBCA7021208BE50
:10165300F0A7021208BE06A8021208BE8CA8021246
:1016630008BE9BA8021208BEF4A8021208BE4EA927
:10167300021208BE9CA9021208BEA6AA021208BE44
:1016830028AD021208BEC2AD021208BE04AE021299
:1016930008BE99AE021208BEB6AE021208BEB9AEBB
:1016A300021208BEBCAE021208BE2FAF021208BE61
:1016B3004AAF021208BE76AF021208BEB1AF0212E1
:1016C30008BEB4AF021208BEC7AF021208BEEEAF27
:1016D300021208BEC7B7031208BED3B7031208BE6F
:1016E3000DB8031208BEBE90021208BEE9900212A2
:1016F30008BEB591021208BE3A92021208BEA39226
:10170300021208BEEF92021208BE6E93021208BEC6
:101713000094021208BE8C94021208BECE940212E8
:1017230008BE3A99021208BEBA9A021208BEF99A82
:10173300021208BEC29B021208BE769C021208BEA9
:10174300269E021208BEB29E021208BE008002123A
:1017530008BEBA80021208BE2C81021208BE3B8169
:10176300021208BEB581021208BE2482021208BE0C
:101773002E83021208BE5783021208BEF783021299
:1017830008BE4584021208BEB584021208BEE9856C
:10179300021208BEC586021208BE3687021208BEB0
:1017A300B388021208BE7589021208BE108A02129B
:1017B30008BE6B8A021208BED68A021208BEDA8BF2
:1017C300021208BE9B8D021208BE3A8E021208BE98
:1017D300AC8E021208BE698F021208BE3197031243
:1017E30008BE8597031208BEDD97031208BE28982A
:1017F300031208BE8A98031208BE2399031208BE77
:101803008B99031208BE9799031208BE25A10312F0
:1018130008BE56A1031208BE10A2031208BE76A288
:10182300031208BEE7A2031208BE3592031208BED4
:10183300C193031208BEC6B5031208BED7B503127F
:1018430008BE77B6031208BE69A7031208BE77A7BE
:10185300031208BEECFF021208BE31B7031208BE22
:1018630041B7031208BE5CB7031208BEBDB703122B
:1018730008BED1B3031208BE56B4031208BEBAB4ED
:10188300031208BEBFB2031208BEE1B2031208BEC0
:101893004BB3031208BE56B3031208BE9AB3031226
:1018A30008BE0080031208BE0E80031208BE4F80DC
:1018B300031208BE6980031208BEF380031208BE38
:1018C3001881031208BE3581031208BE5281031228
:1018D30008BE7781031208BE9F81031208BEE78109
:1018E300031208BE6282031208BE0783031208BEF6
:1018F3005983031208BE1884031208BE26840312F8
:1019030008BEA084031208BE8485031208BE3D8767
:10191300031208BE55B9031208BEEDE5021208BE54
:101923005AE6021208BE1BE7021208BE8BE7021238
:1019330008BE94E8021208BE0CEA021208BE70EA5E
:10194300021208BEC5EA021208BECEEA021208BE9F
:10195300DDEA021208BEF0EA021208BE06EB02122A
:1019630008BE0FEB021208BE22EB021208BE77EB91
:10197300021208BE73ED021208BEA5ED021208BEE4
:10198300C7ED021208BEE0ED021208BEF9ED021225
:1019930008BE03EF021208BE9EEF021208BEBDADE1
:1019A300031208BEE1AD031208BEFAAD031208BE6E
:1019B3002DAE031208BE5EAE031208BE8CAE031238
:1019C30008BEEEAE031208BEFDAE031208BE07AF9B
:1019D300031208BE14AF031208BED299031208BE45
:1019E300F899031208BE359A031208BE449A0312EB
:1019F30008BE639A031208BECB9A031208BED49A98
:101A0300031208BE339B031208BE579B031208BE82
:101A1300169C031208BE239C031208BE349C0312B7
:101A230008BE8EB8031208BEABB8031208BE15F089
:101A3300021208BE73F1021208BE80F1021208BE40
:101A430093F1021208BEB2F1021208BEC8F10212EB
:101A530008BEDCF1021208BE51F2021208BEB6F251
:101A6300021208BE66F3021208BE3BF4021208BE5D
:101A73004BF4021208BE5AF4021208BE98B60312BF
:101A830008BEBCB6031208BEE4B6031208BE0CB708
:101A9300031208BE629C031208BE899C031208BE8F
:101AA300AA9C031208BE0F9D031208BEC89E031210
:101AB30008BEE19E031208BEED9E031208BE019FFD
:101AC300031208BE1F9F031208BE299F031208BEFC
:101AD300339F031208BE469F031208BE999F031249
:101AE30008BED29F031208BE01A0031208BE4FA076
:101AF300031208BE9EA0031208BEB9A0031208BEBB
:101B0300C3A0031208BED4A0031208BE1AA1031275
:101B130008BE92FF011208BEB1DC021208BEDBDC74
:101B2300021208BEF7DC021208BE0ADD021208BE6A
:101B330020DD021208BE7DDD021208BEB0DD0212F6
:101B430008BEECE1021208BE12E3021208BE45E32E
:101B5300021208BE91E3021208BEBDE4021208BEDF
:101B6300E5E4021208BEFAE4021208BE0AE5021214
:101B730008BE4EE5021208BEAFE5021208BEBFE57D
:101B8300021208BE79B0031208BE94B0031208BE55
:101B9300BDB0031208BED7B0031208BEFCB00312D7
:101BA30008BE1BB1031208BE33B1031208BE61B1F4
:101BB300031208BE7BB1031208BE4AB8031208BE63
:101BC300A287031208BEA987031208BEB5880312B1
:101BD30008BEE588031208BE0B89031208BE2E89CE
:101BE300031208BE5089031208BE8A89031208BE75
:101BF300F089031208BE298A031208BE758A0312EC
:101C030008BEA28A031208BEC28A031208BEC8AA6B
:101C1300031208BEDAAA031208BEC5AB031208BE3C
:101C230052AC031208BEACB1031208BE1EB20312BB
:101C330008BE5CB2031208BE9DB2031208BE878EB3
:101C4300031208BEA38E031208BEF28E031208BE4F
:101C53000E8F031208BE3F8F031208BE4F8F03126D
:101C630008BE3B90031208BE4590031208BE529073
:101C7300031208BE6291031208BE7691031208BED6
:101C83007F91031208BE93F4021208BED8F8021221
:101C930008BEDDF8021208BE00B9031208BECAB8B6
:101CA300031208BE2DB9031208BE77B9031208BE8A
:101CB300DBA8011208BE2CA7011208BEE7A401127B
:101CC30008BE6EA4011208BE15A4011208BEA9A382
:101CD300011208BE80A3011208BE73A1011208BE3F
:101CE3003FA1011208BE0CA1011208BEF0A001120F
:101CF30008BE16A0011208BECE9F011208BE039EA5
:101D0300011208BE839D011208BE809D011208BE08
:101D1300879C011208BE559C011208BE929B0112BA
:101D230008BEBD99011208BE4E99011208BE209942
:101D3300011208BE40B2011208BEF7B1011208BE7B
:101D4300AFB1011208BEEDB0011208BE60B00112BE
:101D530008BE1D99011208BE0A99011208BEA29875
:101D6300011208BE9198011208BE53B0011208BEB9
:101D73007297011208BE3C97011208BEFF9601122A
:101D830008BEA096011208BE61AD011208BE4BFE4B
:101D9300011208BE6F96011208BE2A93011208BEF3
:101DA3001B92011208BEAA91011208BE6F91011283
:101DB30008BE3A91011208BE2E91011208BE8E9000
:101DC300011208BED58F011208BEA88D011208BEEC
:101DD300348B011208BEF28A011208BEBD890112BA
:101DE30008BE7289011208BEA488011208BEFB87CF
:101DF300011208BE9787011208BED187011208BEDF
:101E0300B3AA011208BE37F70100000080FBE47398
:101E13000001363601010001020100010301000146
:101E23000401060605020000070100340801000F43
:101E3300090401010D0100FF0E0800001702000054
:101E4300190100FF1A0100011B0100FE1C0100081B
:101E53001D0200001F0100012001000121020000FA
:101E63002301000F240200002601000127010008BE
:101E7300280200FF2A0100072B0102402C01000069
:101E83002D0100012E0100012F0100FF30010B1C69
:101E9300310800003A0100083B01000F2F01000048
:101EA3000300710030016000110070003102200353
:101EB30050048000100061000000140063007300F0
:101EC30072006200430000001300060000000000DF
:101ED30004001200000000000000000004000400E1
:101EE300370037003C0244000000000000000000FF
:101EF300650000003500810000000500000083003C
:101F0300000003027102300160021102700201023B
:101F1300020202028002100261023A0041006302DF
:101F230073027202620243020002130238000002CB
:101F33000002040212020002000200020002040274
:101F43000402370037003C02440200023900000259
:101F530000026502000235028102000205028202CC
:101F6300830200020103710301030103010301035F
:101F73000103220302030103100300030003000310
:101F830000030003000300034203000324030603CA
:101F93000003000304031203250323032503230380
:101FA30004030403000300030003440300030003CA
:101FB30023030003650321003503810300030503A5
:101FC300000300030003010171010101010111017B
:101FD30001013101010101018001100161013B0097
:101FE30014006301730172016201430100011301D3
:101FF30006013D0135000401120100010001000149
:10200300000104010401330133013C0144013201A5
:102013003600000100016501000135008101000166
:102023000501820183010001360001000600000062
:102033000F0000000000000000000000000003FF8C
:10204300FF00000403FFFF0000FFFF0FF401000582
:10205300C4040320000100030B0000000000000083
:102063000003010F010088170200FE160300041786
:1020730004000A170500101706001C171100341777
:1020830014003A1715002E17FFFF000003EAF5E5C9
:10209300D5D5C5B5A595958585757565655555459D
:1020A3004535352525151505DE0F0E10E40FEA0F0E
:1020B3000810FC0FF60F14101A1020102C10F00F3C
:1020C300D80FD20F0AAA0D02740D05860D077A0DDB
:1020D3000C560D0D680DFF000000160F00000B15C8
:1020E3000B020002220F32000006C810DA10E010C3
:1020F300A80FE610A20FAE0F281146114C112E1196
:102103003A1134110C0E020B040B0A0708000F30AE
:102113003016181920231A1C1E3000011916181620
:10212300161523030000034948424D1817250502DD
:1021330000383C3E363B3B352B432C3030171819C7
:1021430021301B1D1F301C11EC10F210FE10F81073
:10215300021026104011321038100204020101014E
:1021630001090200000000000000BE040A0E00E89E
:102173000304001500280008040C05030908FF1ECA
:102183001E0A040F100C74F71203F5E99003B0F064
:10219300900365E4F0121C0E9003B5E4F0A3F090F5
:1021A30003B1F0A3F0120EE2121C14900334E4F016
:1021B300A3F090218693FA7902121C74024E1F74C5
:1021C300F21203F5EAFEEBFF548060699003B0E07E
:1021D300F91214348A088B09EA4509604F7C0080A0
:1021E300010CEC75F003A4F8A9F074C728F5827408
:1021F3002039F583E493F4602CE493F88508828B0B
:1022030083E06870DCAA08EC75F003A4F874C828AE
:10221300F582742039F583E493C0E0740193F58368
:10222300D082121E11AA08AB09121428EEFAEF6429
:1022330080FB02238FEF5420601D120E048A088B4B
:1022430009EA4509600A120D68AA08AB09121428A5
:10225300EEFAEF642080DAEEA2E0501A90036AE00F
:10226300640F700B7900120D32E96003122392EEB2
:102273006401FAEF80BB5420700302235D750C00E8
:102283001238648B09EA450970107C027D007A20BC
:102293007B009003B0E0F912157E7C0079047A008C
:1022A3007B00120DE08A088B098018850882850956
:1022B30083A3A3A3A3A3A3A3A3A37401F0850A08E1
:1022C300850B09E5084509606D7C007904AA08AB14
:1022D30009120DE08A0A8B0B750C01E5082404F83A
:1022E300E50912360824FFF0A3E034FF1258FB700F
:1022F300CC850882850983A3A3A3A3A3A3A3A3A334
:10230300A3E0640170A5850882850983A3A3A3A321
:10231300A3A3E054047094850882850983A3A3A32F
:10232300A3A3A3A3A3A37406F07AB78508828509A0
:10233300831224BE8087120DB07C0079017A007B62
:1023430000120DE08B09EA45097009E50C70057A66
:10235300201247BEEE6420022275EF5402600B1276
:102363000EDCEEFAEF6402022234EF540460191219
:1023730049551248757901900363124BD9120C78B1
:10238300EEFAEF64040222347A007B000225C59042
:102393000D03122C5C120D4A22C082C08374EA1210
:1023A300099D851882851983AA82AB83794B121CF8
:1023B3004A7408120B6F7402F07409120B6FAA822D
:1023C300AB837950121C4A7413120B6FE4124DA89D
:1023D300121C687416023D8274F71203F574E1123D
:1023E300099DEAFEEBFFEE4F603385188285198362
:1023F300AC82AD83120E287406120B6FE0601E745C
:1024030017120B6FE0FD7401120B6FE0FCEEFAEF95
:10241300FB7900120BA0E9600479A4800279000221
:102423004E1A74F61203F5EAFEEBFF8E828F83A336
:10243300A3A3A3A3A3E05440601B12529712258CBD
:1024430060067AFF7BFF801A8E828F83123A0EFA20
:10245300A3E0FB8003120E4C74FE6A700374FF6BDF
:102463006041125297124802120EA0E98E828F83A6
:1024730060061224B7E480051224B77401F07C3897
:102483007D0D8E828F83124BD9121C6EE9F5087075
:1024930015EE4F60097901EEFAEFFB120DBCA908A6
:1024A3000248337508CDAA088E828F831224BEE9B1
:1024B30060DF80EAE0240D123EDD22E0240C123EB0
:1024C300DDE0F9120D442274F61203F5E9FEEAFF8A
:1024D3007A0F7B00121422EA4B60198A828B837471
:1024E3000CF0EEA3A3F0EF8A828B83A3F012485E75
:1024F3007900802FEEF9120DE68A088B09A808A946
:1025030009E849601C88828983A3A3A3A3A3A3A387
:10251300A3A37406125522E0F9120CFCEEF9120D76
:10252300C27910024833C082C08390036AE0640F0B
:102533007014EA4B6010900365E064086005E06482
:1025430004700312254C023DACEAFCEBFD7A017BDF
:10255300009003B0E0F912157822C082C08379009D
:10256300EA241DF582EB123A0B24FD600B1460087C
:1025730024FD600424FD700109023DAC8E828F832B
:10258300A3A3A3A3A3A3A3A3A312259022123A5305
:10259300FB120EA0E9228E828F83A3A3A3A3A3A37E
:1025A300A3A3A31225906402228E828F83A3A3A3E5
:1025B300A3A3A3A3A3A3123DA3900356E0682212EF
:1025C30009237F0602060D74F41203F574FD120944
:1025D3009D8A088B098A828B83A3A3E0F9120DE6F7
:1025E3008A0A8B0BAE0AAF0BEE4F70030226D1851E
:1025F3000882850983A3E064F16030850882850938
:1026030083A3E064CD6024850882850983A3E06405
:102613001A6018850882850983A3E064E9600C8544
:102623000882850983A3E064E170087900120DBC78
:10263300E9706C850882850983A3E0C0E074021207
:102643000B6FD0E0123D87EEF0A3EF1230B2851886
:1026530082851983AA82AB837005120C60800312F2
:102663000E887402120B6FE064E970338E828F83DD
:102673001226DD750A01780A1208DF750AE9780A5D
:102683001208DFE508240CF582E509122BA41230A9
:102693008FFCA3E0FD8A828B831230A91209238E5B
:1026A300828F83A3A3A3A3A3A3A3A3A3E064027022
:1026B300108E828F83A3A3A3A3A3A3A3A3A37406B0
:1026C300F0850882850983A3A3E0F9120DC2120DD8
:1026D300B0900D07122395022C61E0F8A3E0F9E80E
:1026E300FAE9FB2274F41203F5EAFEEBFF75080026
:1026F3008E828F83A3A3A3A3A3E060427508088EF1
:10270300828F83A3A3A3A3A3A3A3A3123CB68B0B80
:10271300EA450B601075082C8E828F83A3A3A3A3B5
:10272300A3E0D2E0F08E828F83A3A3A3A3A3E054FC
:1027330003640160030227D04308110227D0EE246B
:1027430018122C6E6033EE241A122C6E700F1225A1
:10275300AC7003A3E06970757508228070EE241BCA
:10276300F582EF1227D5241AF582EF1230BAEE2440
:10277300191252CB120CEA80541225997003750872
:10278300011225AC7003A3E0697006E508D2E1F5F8
:1027930008E50860158E828F83A3A3E07006E50821
:1027A300D2E58004E508D2E6F50812257F640170BE
:1027B30006E508D2E0F5088E828F83A3A3E0600DBF
:1027C3001227E364016006E508C2E0F508A90802E0
:1027D3002C661239F91227DC22E0FCA3E0FDEE227D
:1027E3001239F3123A2BF9120E8EE922C082C083FA
:1027F30079018A828B83A3A3E0C394024001198ADF
:10280300828B83A3A3A3A3E0C39402400279008A2B
:10281300828B83A3A3A3A3A3A3A3A3A3E064F870BE
:1028230003A3E0F460458A828B83A3A3A3A3A3A39A
:10283300A3A3A3E064F97003A3E0F4602E8A828B60
:1028430083A3A3A3A3A3A3A3A3A3E064FA7003A3F3
:10285300E0F460178A828B83A3A3A3A3A3A3A3A3F8
:10286300A3E064FB7003A3E0F4700279008A828B17
:1028730083A3A3A3E0F8900353E068600279000206
:102883003DAC74F01203F574DE12099DEAFEEBFF12
:102893008E828F83A3A3A3A3E0600E900D0512483D
:1028A3002A6006900D051223957403120B6FAC82F8
:1028B300AD838E828F83A3A3A31248AC1250E5E9A4
:1028C300600F7403120B6FAA82AB83120D62E9705F
:1028D300087901121C20022B99EE241B1239FE7475
:1028E30010120B6F1248757409120B6FE06021749C
:1028F3001A120B6FE0FD7404120B6FE0FC8E828FD3
:1029030083124BD77901120BA0E96004790280C3CB
:102913007403120B6FAA82AB83120D5CE9F50A7480
:1029230009120B6FE0702A90034DE0602474225566
:102933000A6422601C7442550A644270CF742012E8
:102943000B6F122BB7600A7420120B6F122BB0702F
:10295300BBE9A2E650417403120B6FAA82AB831248
:102963000D50E970030228D47420120B6F123A0E33
:102973006403700F7420120B6FA312481CA3E0644E
:102983000D60147403120B6FAA82AB83120EB2E9AB
:1029930064017003022B99EE242C122BA1122EC575
:1029A3007003A3E069701C75080078081208DF78CB
:1029B300081208DFEE242E1252CB122BBD1230A9BF
:1029C3001209237409120B6FE07003022A76122B8B
:1029D300BD124BD9120F068A088B09EA4509700309
:1029E300022B137404120B6FE0F88E828F83A3A360
:1029F300E028F8A3E03400F9E8240D122BA88A821A
:102A03008B83A3A3A3E068601CE88A828B83A3A3C0
:102A1300A3F0908753120B4C850882850983A3A3E7
:102A2300A3A3120B587904E9120B6F1250C22AF8B0
:102A3300A3E034008882F583A3AA82AB83121E0627
:102A43008A0C8B0D8C0E8D0F850882850983A3A3B9
:102A5300A3A3780C1208774003022B9990875B7825
:102A63000C120A2C850882850983A3A3A3A3780CDF
:102A7300120B30900365E064046008E064096003AE
:102A8300022B99E50AA2E54003022B51EE242E12F4
:102A93002C6E851882851983F0EE242F122C6EC0BC
:102AA300E07401120B6FD0E0F0EE2430122C6EC0F4
:102AB300E07402120B6FD0E0F07414120B6FE06439
:102AC300017027740E120B6F123A04EE2412122CAB
:102AD3006E687003A3E0697011740C120B6F1225FA
:102AE300A670077414120B6FE4F0EE2424122BA1CA
:102AF30012070E7404120B6FAC82AD837407120BB2
:102B03006FAA82AB83120C667404120923022B99F9
:102B13009003AAE064016003022A767420120B6F0B
:102B2300122BB77009E50AA2E65003022A76741045
:102B3300120B6FE0F47003A3E0F4605AEEFCEFFDB8
:102B43007403120B6FAA82AB83120D6E8048A2E648
:102B530050447420120B6F124BE8701A741A120B44
:102B63006FE0640270307403120B6FAA82AB837937
:102B730000120E7C80207420120B6F122BB0701683
:102B8300741A120B6FE06404700C7403120B6FAAB7
:102B930082AB83120E767422024F94EE240BF582DD
:102BA300EF1239F922F582E912488EF8221252A95E
:102BB300E0640722123A2B640622EE242A1239F625
:102BC3001227DC24121239F62274F41203F5EAFEFA
:102BD300EBFF8C088D099005E5E0600F1225AC70C2
:102BE30003A3E0697005120CD8804F7900124BCC17
:102BF300120D088A828B83E58245836035A3A3A3E4
:102C0300A3A3A3E05418602AE508241BF582E50971
:102C1300122BA41207121232A2122BA4120712EEC5
:102C230024181252CB122C3F120D1A7404120923CA
:102C330080087900122C3F120CDE80278E828F834E
:102C4300A3A3A3A3A3A3A3A3A31227DC240BF5820B
:102C5300EF122C58223400F583123A53FB227403EB
:102C63001209237F0402060DEE2417F582EF1248A2
:102C73008E2274F71203F574F712099DEAFEEBFF37
:102C8300900365E06403600DE064016008E064099B
:102C93006003022D3F8E828F83A3E0707E7C007DD4
:102CA300007A027B00121C1AEE2402FAEF12360F8E
:102CB300123A049003561248757953121C50790046
:102CC300122D44E0640960031230D78518828519F8
:102CD30083740112484B9003657404F07401120B62
:102CE3006FAA82AB83794A121C4A7401120B6FAC30
:102CF30082AD837A5B7B03121C389003561250DB40
:102D03007A031230E1900350E0A2E35004D2F08042
:102D130002C2F0124838122392801E8E828F83A340
:102D2300AE82AF83FC7D007A037B10121C1A8E8265
:102D33008F83E0F9122D44E4F0120D987409024ECA
:102D43001C900363122C5C120C7890036522C082E2
:102D5300C08390033412482A701F900365E0146007
:102D63000924FC600A14600C800F90033C803290AD
:102D73000338802D90033A8028E849600890033592
:102D8300123089700C8A828B83A3E0F9120C6C8059
:102D93001B90033512333E7005120ED0800E900344
:102DA300D212482A600612481C121E11023DAC744E
:102DB300F41203F574FB12099D8A088B097A0F7BC1
:102DC300001214228A0A8B0BAE0AAF0BEE4F70036C
:102DD300022EB98E828F83124DA67950121C4A851A
:102DE3000882850983A3E06003022EA1900363E0B8
:102DF300F47003A3E0F46034900363E064FE7003B3
:102E0300A3E0F46027851882851983122EC5700309
:102E1300A3E0696017850882850983A374EA1230E9
:102E2300BF7A637B037950121C50807285188285A8
:102E3300198312528A1248757A567B037953121CEE
:102E43004A9003561248A61248757A597B03794B68
:102E5300121C4A7A587B0379E1121C4A90036AE0F8
:102E6300C3940F5021900358E0C0E07402120B6F1B
:102E7300D0E0F07404120B6F7401F004120B6FAA0C
:102E830082AB83121C62750A00780A1208DF780A83
:102E93001208DF900DA9E0F91230A012092385086A
:102EA30082850983122EBEA3F09003657403F0EEAE
:102EB300FAEFFB12485E7405022C63A3E08E828F47
:102EC300832212528EE06822123EE42274F512032A
:102ED300F574D812099D8A088B098A828B83A3A370
:102EE300A3123A307415120B6FAC82AD838A828BB6
:102EF30083A3A3A3A3A3A3A3A312308FFAA3E0FBEB
:102F0300120D9E7415120B6FE0706B850882850994
:102F130083A3A3A3A3A3A3A3A3E0C3940B40578EAC
:102F2300828F83A3A3A3A3A3A3A3A3E064027046F6
:102F3300EE240B122C6EF4703D900365E064026086
:102F43003AE06406603590033412482A6005123073
:102F530089604F900365E064086005E064047016BF
:102F63007417120B6FE0F9741C120B6FAC82AD83F4
:102F7300124BCC120DA474280257A89003341248A4
:102F83002A701F75080078081208DF78081208DF16
:102F9300EE2410122BA11252E31236F71230A912AB
:102FA30009238E828F83124B48123621123A0474FE
:102FB30002120B6F124875EE240D122C6EC0E074D2
:102FC30004120B6FD0E01230B2F508A3E0F50974D8
:102FD3000F7808120B217405120B6FE508F07419B2
:102FE300120B6FE0C0E07406120B6FD0E0F0741B9D
:102FF300120B6FE0C0E07407120B6FD0E0F0741691
:10300300120B6FE0C0E07409120B6FD0E0F074177D
:10301300120B6FE0C0E07408120B6FD0E0F0EE24E7
:1030230010122C6EC0E0740A120B6FD0E0F0741A09
:10303300120B6FE0C0E0740B120B6FD0E0F074273B
:10304300120B6FE0C0E0740C120B6FD0E0F0741C35
:10305300120B6FA982AA8389088A09750A00780866
:103063001208D77C087D007410120B6FAA82AB8301
:103073001243D9120923851882851983AA82AB8347
:10308300120C72022F79123344640122E0F98A820E
:103093008B83A3A3A3A3A3A3A3A3A3E0229003636C
:1030A3001250DF900359122C5C120E5E740222F050
:1030B300EE240B12488B2212488EFA22F07A567BAA
:1030C3000379531230CA22121C507A597B03794B6D
:1030D300121C5022900363122C5C120F00227B00FF
:1030E300121C1A9003591250DF7A047B00121C1A27
:1030F30022F01252EE2274F21203F574F812099DB3
:10310300EAFEEBFF8C0A8D0B890C851882851983E7
:10311300AC82AD837583877582247408120837F5F2
:103123000DEEFCEFFD851882851983AA82AB83120D
:103133004AA97003750D019003B1803BEEFCEFFDCE
:10314300E508240BFAE5093400124AA8601E850835
:1031530082850983A3A3E0650C7011850882850924
:1031630083E0650A7004A3E0650B6038E508241466
:10317300F582E509122BA4123619E50845096024E6
:10318300E50DA2E040B6850882850983E0650A70F3
:1031930004A3E0650B70D5850882850983A3A3E0AA
:1031A300650C70C8AA08AB0974080225C2C082C0A6
:1031B300839003B1023DA974F71203F59003B11292
:1031C3003A538012EA2414F582EB122BA4123A30FC
:1031D3001214C4EEFAEFFBEA4B70E99003B1E4F08A
:1031E300A3F0024E1F7F0702060D74F11203F5EAE6
:1031F300FEEBFF890A8C088D098E828F83E08C8217
:103203008D83123CC0AE82AF83E012449912440A0C
:10321300C41244991232ABE054038C828D8312445E
:1032230008A2E2E4338C828D8312440713131354F0
:103233001F124499124406A2E7E4338C828D83A3C0
:10324300A3A3A31232AB8E0C8F0D750E00780C1254
:1032530008D77C087D00E508240712504E12092385
:103263001250B98E0C8F0D780C1208D77C037D0099
:10327300E508240F12504E120923E50AC3940F40A8
:10328300148E828F83A3A3A3E0C0E01232A2122B79
:10329300A4D0E080061232A2125516F00231E8E5FE
:1032A300082412F582E50922A3A3123CC40EAF83BE
:1032B3002274F41203F574F912099DEAFEEBFF89F7
:1032C3000890033412482A600E12333E7009EEFA56
:1032D300EFFB120ECA805F900363E06E7003A3E0FE
:1032E3006F70537401650860097A777B03124AA9EA
:1032F30070447A007B021238688B0BEA450B7036F8
:10330300900366120B4C851882851983120B589013
:10331300036CE0C0E07404120B6FD0E0F07405128C
:103323000B6F7401F07406120B6F124DA6120C3C56
:10333300E9609B120C427407022C6312334464024B
:10334300221252AAA3A3A3A3A3A3E02274F51203F8
:10335300F58A088B098A828B83A3AE82AF83E0F957
:10336300120C908E828F83E064EB600C850882855B
:103373000983A3E064E17009850882850983A3E4D6
:10338300F0122392750A01780A1208DF85088285F4
:103393000983A3E0F50878081208DF79001230A04A
:1033A300120923120DB00257ABEAF0A3EBF0023D72
:1033B300AC74F61203F59003B4E0701B7C00790142
:1033C3007A007B00120DE0EA4B600C8A828B831239
:1033D300482A6003120D3E024833C082C08312386C
:1033E30050401079FF120DDAE9F8902188E493C375
:1033F300985004790180027900023DAC74F0120305
:10340300F58A088B09890B750C008A828B83A3A329
:10341300A3A3A3A3A3A3E0F9120DE68A0E8B0FAE19
:103423000EAF0F750A01EE4F60030234DD8508828B
:10343300850983A3A3A3A3A3A31250DB85088285D5
:103443000983A3A3A3A3A3A3A31241D9124BD91204
:103453000DCE8A0C8B0DAE0CAF0DEE4F7003023602
:10346300008E828F83A3A3A3A3E4F0A3F0E5082433
:103473000B12360CE0C0E0122B9ED0E0F0120EA629
:10348300EE240CF582EF1247FEE508240EF582E5E3
:1034930009123A01EE240EF582EF124872750C01FF
:1034A300EE2406F8EF123608547FF0A3E054FC1222
:1034B3005340E054046003023563900D0B1241CA7C
:1034C30074077808120A9E8E828F83A3A3A3A3A3F3
:1034D300A3E04508F0A3E04509F08E828F83A3A300
:1034E300A3A312361774077808120B21E5085407B3
:1034F300F508E50B607A8E828F83A3A3A3A3A3A30E
:10350300A3A3A3740212440B240D123ED9E0A2E23A
:10351300500B9003511248A6A3A3124875E50870F7
:10352300030235D5EE2406F8EF3400F9E8FAE9FB97
:103533008A828B83E0547FFCA3E054FCFDE50824DE
:10354300FFF508E434FFF50974077808120A9EECC6
:103553004508F8ED4509F98A828B83124875807214
:103563008E828F83A3A3A3A3A3A3E044800234DCAE
:10357300E5087005750A0080598E828F83A3A3A383
:10358300A3A3A3E05420601212141CEA547F245F07
:103593008E828F83A3A3A3A380238E828F83A3A36F
:1035A300A3A3A3A3E05410600A12141CEA540F242B
:1035B3000A80DD8E828F83A3A3A3A37401F0A3E407
:1035C300123621740412385F8B09EA45097003121D
:1035D30047F1E50CA2E050288E828F83A3A3A3A317
:1035E300124E0CF9EEFAEFFB120DD4E960121248F9
:1035F3002060031239E9EEFAEFFB1214C4750A00D6
:10360300A90A024F9712496922FAE5093400FB8A95
:10361300828B8322A3A3E0F508A3E0F509221236E7
:10362300252212506AA3A3A3A3A32274F41203F5C1
:1036330074F712099D7E00120DE6EA4B7003023601
:10364300F08A828B83A3A3A3A3A3A3A3A3A3E0646E
:103653000660030236F08A828B83A3A3A3A3A3A3EA
:10366300A3E0FF8A828B83123EECE0C0E074081271
:103673000B6FD0E0123A24124AAF124875120DF8BC
:10368300EF540860668518828519831250DB7A002F
:103693007B00120DC88B0BEA450B704F900363122E
:1036A3003B14121C7A7C007D007A007B0080288EFC
:1036B300828F83123A0EF47003A3E0F4602D90031B
:1036C300631236F7124BD912196EE9641A601C7C27
:1036D300007D00EEFAEFFB120DC88A0A8B0BAE0ACF
:1036E300AF0BEE4F70C97900121C807E01EEF974A6
:1036F30009022C631236FB22E0FCA3E0FD8E828FCD
:103703008322C082C083EA4B70059003B580068A8A
:10371300828B83A3A312391460258A828B83A3A38C
:10372300A3A3A3A3A3E0540860E5EC4D60158A822C
:103733008B83123A0E6C7003A3E06D70D280047A0F
:10374300007B00023DAC74F21203F5EAFEEBFF8945
:103753000A8C088D097A107B001214BEEA4B603F75
:103763008A828B83A3A3A3A3A3A3A3A3A3E4123A51
:1037730012A3E50A1252B0A31237AC8A828B83A339
:10378300A3A3A3E4F0A3123A1EA3F0125144EA2424
:103793000CF582EB123CB01237A5A3A3F0A3F00201
:1037A30025C5A3F08A828B8322A3A3E508F0A3E5B2
:1037B30009F02274F41203F5EAFEEBFF89088C0A80
:1037C3008D0BEE4F60557401650870147901120D6D
:1037D300DAE9F8902180E493C398500F7911806A55
:1037E30074046508702F12385040F18E828F83A3C2
:1037F300A3A3A3A3A3A3A3A3E508123CC0A31258A6
:10380300358E828F83A3A3E4F0A3F09003B512480F
:103813002A6021800D7402650860D079C1802BE095
:10382300F8A312489FA3A312391488828983A3A300
:1038330070ED80039003B5EEF0A3EF12385F8B0BAE
:10384300EA450B70031247F17900022C66790412E2
:103853000DDAE9F890217DE493C39822F0123864DD
:10386300227A207B009003B0E0F912158A22C082ED
:10387300C083E9F879009003B5801D8A828B83A306
:10388300A3A3A3A3A3A3A3A3E068600574FF687025
:1038930001098A828B83A3A312391470DE023DAC23
:1038A30074F71203F5EA4B70059003B580068A821C
:1038B3008B83A3A312391460248A828B83A3A3A3CB
:1038C300A3A3A3A3A3A3E06970E4EC60148A828B8F
:1038D30083E0240D1250CCA2E240D380047A007B13
:1038E30000024E1FC082C0839003B580068A828B7C
:1038F30083A3A312391460128A828B83A3A3A3A385
:10390300A3A3A3A3E06970E580047A007B00023DD2
:10391300AC122C5CEA4B2274F21203F58A0A8B0B6D
:103923008C0C8D0D750800750900EA450B602E900F
:1039330003B580068E828F83A3A3123967601EAC02
:103943000CAD0DEEFAEFFB850A82850B83121E1177
:10395300E9640170DFEEF8EFF988088909AA08AB7A
:10396300090225C5E0FEA3E0FFEE4F2274F7120320
:10397300F59003B5123A047C007D00800DE8FCE964
:10398300FD88828983A3A3123A04E8496030EA6878
:103993007002EB6970E79003B5124BD9E86A7002C5
:1039A300E96B88828983A3A37008123A049003B554
:1039B3008009123A048C828D83A3A3124875024EA8
:1039C3001F74F71203F5EAFEEBFFEE4F6015120DBD
:1039D300F2123A3612482060031239E9EEFAEFFB8D
:1039E3001214C4024E1FEE240C1239F6123A4B2263
:1039F300EE241DF582EF3400F58322F582EF1239B0
:103A0300F9123DA322F582EF1239F9123A2B221251
:103A13003A16221252B8A3A3A3A322123A16A3A3BF
:103A2300221237A6123A2B221252A3E022E0FEA35F
:103A3300E0FF228E828F83E0241C123EDD123A4B7C
:103A43008E828F83123A4B22123A53FB1214C422F2
:103A5300E0FAA3E022C082C083EAFCEBFDEC4D70E8
:103A63000479058044EC24FBF582ED34FF124828E9
:103A73007007123AAFE0F4600512142880E3900354
:103A8300B0E0C0E0123AAFD0E0F0902184E493F9C3
:103A93007AB77B03121452E96401700B7A007B201E
:103AA3001247F5790080027904023DACEC24FFF55E
:103AB30082ED34FFF5832274F41203F5A2AFE433ED
:103AC300F508C2AF9003B71239676038EE24FBF5EF
:103AD30082EF34FF1248287A007B209003B0600500
:103AE3001247F88005E0F912145EE4F50AF50B7845
:103AF3000A1208DBEEFCEFFD7AB77B0312144C7459
:103B030002120923E508A2E092AFEEFAEFFB022CC2
:103B1300661250DF851882851983AA82AB832274CB
:103B2300F21203F574FC12099DEAFEEBFF750AFE1F
:103B3300750BFF120DB6E960057911023CA5EE2461
:103B430015122C6E6037900D1FE0C43354E0F8E07B
:103B5300333354FC48C0E0EE2415122BA1D0E012FD
:103B63003CC0123CB68B09EA45096011750AFFEEA9
:103B7300240F122C6E4404124883D2E0F08E828FFD
:103B83008312258A6006EE2412123CADEE24131232
:103B93002C6E7010902183E493C0E0EE2413122B5B
:103BA300A1D0E0F08E828F83E0A2E750045403801B
:103BB3001CEE2414122C6E7015900342E0C0E0EE4C
:103BC3002414122BA1D0E0F0900342E004F0EE2481
:103BD30011122C6E640170169005DCE0600D9003E9
:103BE3004DE0700A8E828F83E07003123CAA8E82AE
:103BF3008F83E064017013EE240B123A08640270A1
:103C030009EE240F122C6E4440F085188285198327
:103C1300AC82AD83EEFAEFFB120E1C8A088B09749B
:103C2300FE650A700374FFF470098E828F83A3A369
:103C330012505AEA450960668E828F83E0C0E074B1
:103C430001120B6FD0E0F07402120B6F1251487423
:103C530001120B6F85820C85830D780C1208DBEE45
:103C6300240F122BA1120712EE240E122C6EF50C48
:103C7300780C1208DF9003561207127407120B6FA9
:103C8300E0F9AC0AAD0B120E167407120923E9FE14
:103C930074106E700BAA08AB091214C480027E1054
:103CA300EEF974040225C2EE2411F582EF1239F9FC
:103CB300E4F022A3122C5C79FF121D4022123CC4B3
:103CC30022F08E828F83A322C082C08374DE120906
:103CD3009D8A828B83A3A3A3A3123A04740E120BAF
:103CE3006FE8F0A3E9123D9A740C120B6F123D9327
:103CF300240DF582EB122C71C0E0741A120B6FD0F5
:103D0300E0F0124FA7EB123A017420120B6F123D31
:103D1300932415F582EB122C71C0E07408120B6F1B
:103D2300D0E0F0EA241CF582EB123A017412120B74
:103D33006F123D932411F582EB122C71C0E07409CC
:103D4300120B6FD0E0123D8774FFF07401120B6FFA
:103D530074FFF07402120B6F74FFF0908753120715
:103D63000E7404120B6FAC82AD837407120B6FAA2F
:103D730082AB83120C667404120923790074221235
:103D830009238025123D8B22F08518828519832211
:103D9300E8F0A3E9F0EA221237A6A3123DA222A378
:103DA300E0F8A3E0F922124BD9D083D0820208BBFA
:103DB30074EC1203F574EE12099D8A128B13ECFE58
:103DC300EDFF89097426120B6F12505A7428120BD7
:103DD3006FE0F5107429120B6F123ECE742B120B89
:103DE3006FE0F50EA3E0F50F7508107A1E7B001245
:103DF30014BE7402120B6F1248027402120B6F127C
:103E0300482A7003023EC7851882851983AA82ABAC
:103E13008379501246DD124BD97402120B6F123E96
:103E2300ECA31248027410120B6F1258377402126B
:103E33000B6FE0240B123ED97402F0120B6F123E8B
:103E4300EC7402F0120B6F12529B1251487402125F
:103E53000B6F124BEEE509F07402120B6FE0240CAA
:103E6300123ED9E510F07402120B6F123ED6E51222
:103E7300F0A3E513F07408120B6FE50CF0A3E50D46
:103E8300F0740A120B6FE510F0850E82850F83C064
:103E930082C083740D120B6FAC82AD83D083D0824A
:103EA3007403120837F97402120B6FAA82AB8312E0
:103EB3000DBCE96401700575080080087402120BDB
:103EC3006F1239EFA9087412025071E0F50CA3E0E8
:103ED300F50D22E0241C123EDD22F8A3E0123EE49D
:103EE300223400F98882898322124BE1A3A3A3A37E
:103EF300A32274EE1203F5EAFEEBFF8C088D098E04
:103F0300828F83A374081248BEE060088E828F8379
:103F1300A37410F0122C6B60098E828F83A3E024AC
:103F230008F0EE2415122C6E60088E828F83A3E0B6
:103F330004F08E828F83A3A3A3A3A3A3E060198EAF
:103F4300828F83A3A3A3A3A3A3A3E0C3332402F871
:103F53008E828F83A3E028F0EE2411122C6E60056D
:103F6300750B0E8003750B008E828F83A3C082C0F6
:103F730083EE240D122C6ED083D082F8E028250B1B
:103F83008C828D83F0EE2411122C6E60051243E9AE
:103F930028F0850882850983E0C394754009750874
:103FA300007509000240D7E0FA7B001251F6700356
:103FB3000240D7EEFAEFFB120E22EA85088285094A
:103FC30083124803EE2402F8EF122ECB1241D112D2
:103FD3004113F0EE24040808EF122ECB124613A36C
:103FE300124113A3A3F0EE24131240F9F0EE2414AC
:103FF3001240F9A3F0750A08EE2416122C6E601015
:10400300EE24181250D8E50824081252D9750A1064
:10401300122C6B6016EE241A1250D8850A0CE50890
:10402300250C1252D97408250AF50A8E828F83A3B0
:10403300A3A3A3A3A3E06059EE2407F510EF340074
:10404300F511851082F583E0C0E01240E0122BA445
:10405300D0E0124103E0C0E01240E0122BA4D0E014
:10406300124103A31240EC1208D7851082851183F5
:10407300E0C333FCE433FD850A0CE508250C12503C
:104083004E120923851082851183E0C333250AF577
:104093000AEE2415122C6E600BC0E01240E0122BC6
:1040A300A4D0E0F0122B9E1240EC1208D7EE240DA0
:1040B300122C6EFC7D00850B0A8E828F83A3E0F8A1
:1040C300E50828F8E5093400F9E8250AFAE9125069
:1040D30051120923AA08AB097F0A02060D850A0CAF
:1040E300E508250CF582E50922E0F50CA3E0F50DC2
:1040F300750E00780C221239F612411DA3A3A322D8
:10410300F0050A8E828F83A3A3A3A3A3A3A3A32251
:10411300A3A3125344A312411D22124617A3A322A1
:1041230074F61203F58A828B83E0FC9003531241E9
:10413300CA74027808120A9EEC4508FCAD09EA2409
:10414300121241C474067808120A9EEC4508FCED6D
:104153004509FDEA2415F582EB122C716004780100
:1041630080027800E4C8F9ED49FDEA2411F582EBF9
:10417300122C71F508880974097808120A9EED4516
:1041830009FDEA24161241C4740B7808120A9EED45
:104193004509FDEA24171241C4740C7808120A9EDB
:1041A300ED4509FD8A828B83A3A3A3A3A3A3124195
:1041B300CA740A7808120A9EECFAED4509FB024814
:1041C30033F582EB1239F9E0F50875090022E08531
:1041D300088285098322A3E0F98508828509832261
:1041E30074EE1203F58A0A8B0BECFEEDFF750F01DB
:1041F300E9C39408500579000243D68E828F83E980
:10420300F012463CE96003750F001246208E828F40
:104213008312466AEE124FA8EF12465FC0E0EE2407
:1042230011122BA1D0E0124657C0E0EE2412122B3C
:10423300A1D0E0123CC07408125062A3A3A3E060B3
:1042430015124608EE2413F582EF1248728E828F00
:1042530083A3E02408F08E828F83A3A3A3A3A3A345
:10426300A3A3E060218E828F83A3858208858309BF
:1042730012464BEE2415F582EF12487285088285AB
:104283000983E02408F08E828F83A3A3A3A3A3E072
:10429300601A8E828F83A385820885830912462F35
:1042A3008E828F83A3A3A3A3A31243FBEE2419122D
:1042B3003CADEE241B123CADA31248B6E0700302E2
:1042C300436AEE2419F8EF3400F98E828F83A385B5
:1042D3008208858309E0FAE50A2AF582E50B122CA8
:1042E30071888289831243FBFAE50A2AF582E50B7A
:1042F300122C71C0E0EE241A122BA1D0E01243FB62
:1043030088828983E06059F890217CE493C39850B4
:104313000575110C8008EE2419122C6EF5118E828E
:104323008F83A3E0F8E50A28F50CE50B1243DF12AF
:1043330008D7E511C333FCE433FD7ABC7B0B12438E
:10434300D9120923EE241B122BA174BCF0A3740B06
:10435300F0E511C333F8850882850983E0288006D8
:10436300EE2418125513F08E828F83A3E0F88E8209
:104373008F83E0C39850030241F9A3E0FA8A08E56A
:104383000A2508F8E50B3400F9EE241DF582EF1237
:10439300497E12440BC39AC0E0EE2417122BA1D01E
:1043A300E012487B602BEE2417F8EF3400F98808FD
:1043B30089098882F583E024F212495F240EFAA367
:1043C300E03400FB888289831248021243E9C398D0
:1043D300F0A90F0240DB1213F87403223400F50D29
:1043E300750E00780C2290034EE0F9120BA6E9F843
:1043F300850882850983E022F0850882850983E0A8
:1044030004F022A3A3A3A3A3F08E828F83E02274DC
:10441300F41203F58A088B09EA1244A0F0EA131395
:10442300543F124499A3A3A3F0EAC413131244A064
:10443300A3A3F0EB1244921244AA7409780A120B54
:10444300211244901244A9740A780A120B21E50A36
:104453005401C0E0EC2418F582ED122BA4D0E01235
:1044630044AF740B780A120B21124490A31244A98F
:10447300740C780A120B21124490A3A3A3A3A3A341
:10448300A3A3F0740D7808120B210227D0E50A5478
:10449300018C828D8322540F8C828D832254038C52
:1044A300828D83A3A322A3A3A3A3A3A3F08A0A8B2E
:1044B3000B22C082C08379008A828B83A3A3A3A328
:1044C300A3A3E090034D600FE070228A828B83A345
:1044D300A3E07019098016E060138A828B83124B64
:1044E300D0900356E06A7003A3E06B70E7023DAC23
:1044F30074F01203F58A0A8B0B890C8C088D091250
:10450300463C12462085088285098312466AE508DF
:10451300124FA8E50912465FC0E0E5082411F582B1
:10452300E509122BA4D0E0124657C0E01232A212C2
:104533002BA4D0E0124986740812499F60111246D9
:1045430008E508241312497A124986E02408F08505
:104553000882850983A3A3A3A3A3A3A3A3E060174E
:10456300850882850983A3124647E5082415124965
:104573007A12440B2408F0850882850983A3A3A338
:10458300A3A3E06019850882850983A3AE82AF8364
:1045930012462F85088285098312440604F0AA086F
:1045A300AB09120E34E9F50D70568508828509832F
:1045B300A3A3A3A3A3A31246137014E0FA8A0EE5E0
:1045C3000A250EF8E50B124867E50CC39A80211201
:1045D3004647E8240EF8E912486790034EE0F912C3
:1045E3000BA68E828F83E0F8E50CC39824F2C3995F
:1045F300C0E0E5082417F582E509122BA4D0E0F00A
:10460300A90D024F97E50A2408F8E50B3400F922B7
:1046130012461722E0850882850983A322850A8230
:10462300850B83A3A3124680E0F9EA22E0F8E50AAA
:1046330028F582E50B12488E228A828B83124F9CC7
:10464300120E2E22AE82AF83E0F8E50A28F8E50BBE
:104653003400F922124693A3A3A3E0221239F9E806
:1046630012468CA3A3E022A3A3A3A3A3A3A3A3A360
:1046730012468C124680A3A3E0F9EAF822E0FA85F9
:104683000A82850B83A3A3A322F0A3E912469322F4
:10469300F0850A82850B83A3A3A3A322C082C083D0
:1046A3007AC57B0379E2121C4A7AC57B03023DACCF
:1046B300C082C083900356023DA9C082C08374FEAA
:1046C30012099D851882851983AA82AB83794B12BF
:1046D30046DD124BD97402023D82121C4A851882B0
:1046E30085198322C082C083794A121C4A023DACD9
:1046F30074F61203F59003CDE0FE04F0EEF9120D0B
:10470300E68B09EA450970EDEE60EAF90248337475
:10471300F01203F5EAFEEBFF8C088D09890A741089
:10472300120B6FE0F50B7411120B6FE0F50C120F07
:1047330006EA4B7013E50C7042A90AAC08AD09EE0A
:10474300FAEFFB120F1E806EE50A6021EA2402F5E0
:1047530082EB122C71850A082508F8E4340013E86B
:1047630013F070098A828B83A3A37401F0E50C60B4
:1047730045E50B70068A828B83E4F07401650C7047
:1047830035E50B9003D47004E4F0802AE004F09044
:104793000D0CE0F89003D4E0C398401AE4F09003C2
:1047A30059E06E7003A3E06F700CEEFAEFFB790132
:1047B300120C8A1247BC024F977A017B009003B018
:1047C300E0F912158422C082C08374016A7001EB80
:1047D30070077A011247F38012900D03124802EA20
:1047E3004B600512254C80031247BC023DAC7A2076
:1047F3007B009003B0E0F9121458223400F583EAE9
:10480300F0A3EBF022C082C083900D050233ACC04D
:1048130082C083900D070233AC1252AA22EE240CFD
:10482300F582EF3400F583123DA3E84922120923F0
:104833007F0202060DA2F0E43385188285198312E4
:1048430048547952121C50221248547942121C5077
:1048530022F0AA82AB8322AA08AB099003B0E0F945
:1048630012142E223400F9E508241DF582E50912FD
:1048730039F9E8F0A3E9F022125066A3A3E022A3DA
:10488300F0EE241512488B22F582EF3400F583E015
:1048930022124898223400F583E0F8A3E0F98882D5
:1048A300898322E0F81248AC22A3E0F98E828F8339
:1048B300A3A322F0EE24181239F622F0EE241612E6
:1048C30039F62274F41203F5EAFEEBFF7A007B0457
:1048D3001247C01249551248759003657409F012C6
:1048E3000E408A088B09AC08AD09EE2413122BA1E4
:1048F300124BD9124AA9640170487A0F12494860D1
:10490300418A828B83740212495FFAA3E0FB8A8295
:104913008B83A3E0FC8A828B83A3A3E0FBEC850853
:1049230082850983A3A312480388828983124BDDFE
:104933001241D1124882FAA3E0FB794A121C5012A9
:10494300485A022C667B001214228A088B09EA4516
:104953000922900336123DA3900D0722F0EE241D89
:10496300F8EF12496922123EE4E02212497222341E
:1049730000F5837401F022F582E5091239F9E8F0B4
:10498300A3E92212498A2212498E22F085088285E0
:104993000983A32212498EA3A3A3A322124997A397
:1049A300A3E022124DB0120E9422EE2417F582EFEB
:1049B300124972120E40EE241A1239F6EAF0A3EBF2
:1049C300F02274F41203F574F312099D8908EAFEC8
:1049D300EBFF7C0D7D007900851882851983AA82FF
:1049E300AB83121404EE241D122BA112529BA3E0DD
:1049F300F8741F58600A7901121C207900024AA03A
:104A0300E8A2E55008740C120B6F7401F0E8A2E7FA
:104A13005008740B120B6F7401F0E8A2E6740A508D
:104A230008120B6F7401F08008120B6FE0640170C1
:104A330005EE24138003EE24151250D87402120BD2
:104A43006FAA82AB83121C38122B9E124AAE1248F5
:104A530075740A120B6FE06401703312257F703B8B
:104A6300120E4C8A0A8B0BA80AA90BEE240B122CEC
:104A73006E687003A3E0697022120E40EAFCEBFD3E
:104A83007402120B6FAA82AB83124AA9600D8518B8
:104A930082851983AA82AB83120C84A908740D0240
:104AA3002C63EEFAEFFB121C32E922E0124AB32226
:104AB300F8A3E0F98518828519832274F61203F5A9
:104AC30074F312099D8A088B09ECFEEDFF7C0D7DC2
:104AD300007900851882851983AA82AB831254401A
:104AE300A3A3A3A3A3A3A3A3A3124B48124B51F8BD
:104AF300A2E55008740B120B6F7401F0E8A2E750A3
:104B030008740A120B6F7401F0E8A2E6EE50042455
:104B130013800224151250D87402120B6F124B3AF1
:104B2300A3A3E0C0E0740C120B6FD0E0124DA812E7
:104B33000C7E740D024830AA82AB83121C388508A0
:104B43008285098322E0124AB3E8F0A3E922F01236
:104B530039F312529FA3E02274F71203F574E112A2
:104B6300099DEAFEEBFF8E828F83124BDDA3A3A385
:104B7300E0A2E050518E828F831226DF8A828B83DC
:104B8300A3A3A3A3A3A3E054FE124BF58A828B83B2
:104B9300124BEEE0F98A828B83E0241CFAA3E01225
:104BA300360F124BD9120E3AE9701B741D120B6F9C
:104BB300124BE87011851882851983AC82AD83EEA0
:104BC300FAEFFB120E82024E1A8E828F83A3A3A3E7
:104BD300A3A3A3A3A3A3122C5C22124BE122125280
:104BE300A3A3A3A322123A2B640422E0241B123EA4
:104BF300DD22123D8BAC82AD8322E9F87900740487
:104C030068600A740A686005740368700109020821
:104C1300BB74F61203F58A828B837420F0A3A3740A
:104C230001F0120C308A088B09AE08AF09EE4F6011
:104C3300108E828F837401F09003A3E070031249F6
:104C4300ADEEFAEFFB024833C082C0839003B97420
:104C530001F0E9A2E350037403F0E9A2E15004E098
:104C6300D2E2F0023DAC74F61203F579007C008ABF
:104C7300088B097808120653F8FF079C4C9A4C9A44
:104C83004C9A4C9A4C934C974C9C4C904C0C8009EE
:104C93007C0480050C80F67C089003B9E05C60031B
:104CA300098003EC60010902483374F61203F58AA4
:104CB300828B83E07012A312482A600C8A828B8352
:104CC300124BD8121D7080047A007B0002483374A3
:104CD300F51203F574F312099D8A088B09ECFEEDB6
:104CE300FF750A12EA450970057900024DA1900388
:104CF30056E065087004A3E065097014120E40EADB
:104D0300FCEBFD124AA57005750A018003750A00C4
:104D1300851882851983E4F004120B6FE508F0A36C
:104D2300E509124DA8120BF4E960277403120B6F07
:104D3300AA82AB83120BD6E964017016750A01745B
:104D430003120B6FAC82AD83124AA56021750A0072
:104D5300801C7412650A70169003A2E06402700E40
:104D6300EEFCEFFDAA08AB09120C0CE970DFEEFCB8
:104D7300EFFDAA08AB09120F0CE9F8740A68700575
:104D8300750A01801774A0687012EEFCEFFDAA0883
:104D9300AB09120F18AA08AB09120F2AA90A740D3E
:104DA3000257A87402124DAC22124DB022123D8B51
:104DB300AA82AB832274F71203F5EAFEEBFF8E821D
:104DC3008F83A3A3A3A3A3A3A3A3E06015EE24153A
:104DD300122BA1122C4C120EACE964017004790160
:104DE30080258E828F83A3A3A3A3A3A3A3E060152F
:104DF300EE2413122BA1124E0CFAA3E0FB120EACFD
:104E0300E9640160D9790080131236FBA3A3A3A33D
:104E1300A3A3A3A3A3E022741F1209237F01020605
:104E23000D74F01203F574FD12099D8A088B09ECC9
:104E3300FEEDFF890B7413120B6FE0F50C750A017D
:104E43007401120B6F74041252D36048E50C601D99
:104E5300EA2417F582EB1255161252C18A828B830C
:104E6300E0D2E7F0EA2414F582EB123CB0124FA72C
:104E7300EB1248947403125839EE88828983A3A3F2
:104E8300F0EF88828983A3A31237A51237AC120CE3
:104E93002AE9F50AA90A7403024F9474EC1203F584
:104EA30074F512099D8A0A8B0B890C8C0E8D0F7475
:104EB3001F120B6FE0F50D7420120B6FE0F510A3BA
:104EC300E0F5117E01EE120B6F740AF0E97007E54D
:104ED3000DC333240AF01250797003024F7B125032
:104EE3008E7409F0A3E50CC43354E0450D1250A0B1
:104EF300E50C702D7C008023ECC333F8E433F9E533
:104F03001028F8E51139F988828983124F8888823D
:104F13008983122EBEF0A30EAF830CECC3950D4014
:104F2300D7E5082417F582E50912496E120E40E50C
:104F330008241AF582E5091247FE7403120B6FACBD
:104F430082AD83AA0AAB0B120BDCE96019E50824D6
:104F530016F582E509124F82120B6FA882A983E529
:104F630008241812486E850882850983125835AAC9
:104F730008AB09120C2AE9FEEEF9740B0250711208
:104F83004972740322E08E828F83F0A3AE82AF83D3
:104F9300221209237F0802060D123A53F9EA24006C
:104FA300E439FB22EA240BF5822274EE1203F58A1C
:104FB3000C8B0D890E8C088D097412120B6FE0F5A2
:104FC3000F7413120B6F12505A90054B12482A603C
:104FD30077E50FC333F8E433F9E8240EFAE9340034
:104FE300FB1214228A108B11AE10AF11EE4F6058D2
:104FF3008E828F8374D4F0A3A3E50CF0A3E50D1286
:105003005062E50EF0AC08AD09EE2405FAEF12523A
:10501300DCEE240D122BA1E50FF0850A08850B09A0
:10502300750A0078081208D7E50FC333FCE433FD93
:10503300EE240EFAEF125051120923EEFAEFFB9011
:10504300054B12529B121E110240DBFAE509340094
:10505300FB1213F8740322E0F50AA3E0F50B221206
:1050630050662212506A22123CC4A3A3A32212093F
:10507300237F0C02060D851882851983AA82AB83D0
:10508300120E948A088B09EA450922EA240BF58259
:10509300EB12488EFEA3E0FF8E828F8322F0A3AE35
:1050A30082AF83AC0EAD0FEEFAEFFB1250B22212B9
:1050B3001C381250B922EE2408FEEF3400FF22E020
:1050C300FA8E828F83A3A3E022FEA3E03400FF8E37
:1050D300828F83E0221239F61250DF22E0FCA3E034
:1050E300FD22122C5C120E282274F61203F5EAFE3E
:1050F300EBFF9003BA801388828983E06E7003A369
:10510300E06F603A88828983A3A312482A70E87A01
:10511300047B001214BE8A088B09A808A909E84970
:10512300601C888289831251489003BA124BD98834
:10513300828983A3A31248029003BA1248750248D6
:10514300338A828B83EEF0A3EFF02274F41203F51B
:105153007E009003BA80070E88828983A3A3124836
:105163002A70F4EEC333FAE433FB1251F6607E7F08
:10517300009003BA8024888289831250DBEFC33303
:10518300FAE433FBE5082AF582E5093BF583ECF005
:10519300A3EDF00F88828983A3A312482A70D790C6
:1051A30003AB1225B97003A3E069780870191208DC
:1051B300DBEEF50A780A1208DF7C777D037900902D
:1051C30003AB125201801A1208DBEEF50A780A12B9
:1051D30008DF7C777D0379009003AB124BD9120E65
:1051E300BE7403120923AA08AB091214C4120C4299
:1051F300022C661214BE8A088B09EA450922122C76
:105203005C120EC422C082C08380128A828B83A365
:10521300A3123A049003BA1248751214C49003BA45
:1052230012391470E6023DAC74F61203F590036371
:10523300123A309003CE12528A1248757ACE7B030B
:105243007950121C509003CE1227D8FAEFFB120F9D
:10525300249003CE123A3090054D12482A60257AE5
:10526300067B00121422EA4B601A8A828B8374D560
:10527300F0A3A3E41252B0041252C190054D12528E
:105283009B121E1102483312528E22E0F8A3E0F95A
:10529300900363228E828F8312529F221252A32283
:1052A300E0F81252A922A3E0F5838882221252B4B5
:1052B300221252B822F08A828B83A3A3A322125212
:1052C300B4A3EEF0A3EFF022F582EF12488EF92299
:1052D3001249A6EA4B22FAE5093400FB121C3822D4
:1052E3001248ADA3A3A3A3A3A3A32290217EE49377
:1052F3002401F8E43400F97A027B002274F71203E4
:10530300F57E0080041258EC0E12541040F77E0014
:10531300EE12532B74FEF0A304125340E4F00EEE8E
:10532300C3940340EB024E1F75F003A4F8A9F07475
:10533300BC28F8740339F988828983A32212534461
:1053430022F0888289832274F71203F57F0080019B
:105353000F90217BE493F8EFC3985026EF1254FC8F
:105363006A7003A3E06B70E81258996C7003A3E0B2
:105373006D600A74FF6C700374FF6D70D312540771
:1053830080047A007B00024E1F74F61203F57CFF43
:105393007DFF7AFE7BFF120EE8EA4B704075080032
:1053A3008036E50875F017A4F8A9F0745728F5823C
:1053B300740A12550E600C745628F582740A12553D
:1053C3000E7013744828FE740A39FF8E828F83127D
:1053D300551BEEFAEFFB050812547640C50248331D
:1053E30074F41203F58A088B09ECFEEDFF800B12AF
:1053F3000EFAEEFCEFFDAA08AB09120EE8EA4B70B9
:10540300EE022C66744828FA740A39FB2290217B39
:10541300E493F8EEC3982274F71203F5EAFEEBFF68
:10542300EE4F601012543A74FEF0A30412583F1466
:10543300F0A304F0024E1F7C177D007900121404C0
:105443008E828F832274F71203F5EAFEEBFF750851
:10545300008018E50875F017A4F8A9F01258A47095
:1054630003A3E06F60031258F4050812547640E377
:10547300024E1F90217BE493F8E508C3982274F64B
:105483001203F5120EE88A088B09A808A909E8494E
:10549300600AE8240DFAE93400FB80047A007B00FB
:1054A30002483374F41203F58A0A8B0BECFEEDFF0A
:1054B300750800750900802EE50975F017A4F8A991
:1054C300F01258DF601EE5091254FC650A7004A34C
:1054D300E0650B700375080AEEFCEFFD12579B6045
:1054E300034308A0050990217BE493F8E509C398D9
:1054F3005004E50860C20227D075F017A4F8A9F09C
:1055030012550722744828F582740A39F583E0227C
:10551300F582EF1239F9E422122C5C120D202212CB
:105523005344A3A3A3A3A3A3A3A32274F21203F537
:105533008A088B09ECFEEDFF740E120B6F12505AA2
:10554300750C007C007D01801012141CE50CF5F035
:10555300EA84ACF0750C007D0078007900800312BA
:1055630056D812573440030255FAE8FAE9FBEA75B4
:10557300F017A4FA85F00D75F017EBA4250D12575B
:10558300107003A3E0F460D71256EE65087004A30D
:10559300E0650960CA1256EE6E7003A3E06F60BF48
:1055A3001256EE650A7004A3E0650B60B2E8FAE9EF
:1055B300FBEA75F017A4FA75F017EBA4250DFB743D
:1055C300562AF582740A1256CF509474016D050C55
:1055D300608DE50CC39C4087E875F017A4F8AAF02A
:1055E30075F017E9A42AF9744828F582740A39F585
:1055F30083124BD90256CC7800790080031256D817
:1056030012574140030256B3E8FAE9FBEA75F01278
:10561300A4FA85F00D12572064FE7003A3E0F46032
:10562300DC12571665087004A3E0650960CF1257B2
:10563300166E7003A3E06F60C4125716650A7004F8
:10564300A3E0650B60B7E8FAE9FBEA75F012A4FA88
:1056530075F012EBA4250DFB74D72AF5827408129A
:1056630056CF5099E8FAE9FBEA75F012A4FA75F0FF
:1056730012EBA4250D1256E164016081E06402700F
:105683000302560074016D050C7003025600E50C0D
:10569300C39C5003025600E875F012A4F8AAF075F3
:1056A300F012E9A42AF974CE28F58274080255F1A0
:1056B300E50C6011EC700E7401650C600302554C2F
:1056C3007C010255577AFE7BFF0225C53BF583E03B
:1056D30014C3940622E8240108E93400F922FB7478
:1056E300D22AF58274083BF583E022E8FAE9FBEA63
:1056F30075F017A4FA75F017EBA4250D12570322C2
:10570300FB74482AF582740A3BF583E0221257039F
:1057130064FE22E8FAE9FBEA75F012A4FA75F012C6
:10572300EBA4250DFB74CE2AF58274083BF583E0C8
:105733002290217BE493FAC3E89AE9940022902112
:1057430076E493FA740193FBC3E89AE99B2274F518
:105753001203F58A088B09ECFEEDFF750A0080023F
:10576300050A90217BE493F8E50AC3985028EEFCE0
:10577300EFFDE50A75F017A4F8A9F012579B60E056
:10578300E50A75F017A4F8A9F0744828F582740A9D
:1057930039F5831237AE8010744A28FA740A39FB3C
:1057A300121C32E9221209237F0302060D74F01240
:1057B30003F58A088B098C0A8D0B890C120EEE8A6D
:1057C3000E8B0FAE0EAF0FEE4F605512543AE50835
:1057D300F0A3E50912583F125837E50C600AEE248E
:1057E3000F122BA1E50C8006EE240F12582FF09018
:1057F30003D012482A601A9003AAE064017008EEED
:10580300240E1255138010EE240E122BA174078060
:1058130006EE240E12582F1230F41202A412582648
:10582300024F97EE240D1239F6E8F0221239F6747E
:105833000122A3A3E50AF0A3E50BF022123625A368
:105843002274F51203F58A088B09ECFEEDFF750A45
:1058530000800F1258A47003A3E06F60031258F482
:10586300050A90217BE493F8E50AC3985025E50ADD
:1058730075F017A4F8A9F012589965087004A3E00D
:10588300650970CF745228F582740A39F583125171
:105893004880CD0257AB745228F582740A12550E14
:1058A30022745228F582740A12550E6E2274F7126E
:1058B30003F5EAFEEBFF7508008019E5081254FCB6
:1058C3006E7003A3E06F700A1258DF7005E50812CB
:1058D30058ED050812547640E2024E1F744A28FA26
:1058E300740A39FB120BD6E922EE75F017A4F8A956
:1058F300F0125407120EFA22125344123DA3E84940
:1059030022C082C08374F812099D85188285198389
:10591300AC82AD837583867582FC74081208378563
:105923001882851983AC82AD83124AA9640170047D
:105933007900800279017408023D82C082C0838AA3
:10594300828B83E0D2E7F012169E0263D2C082C03C
:10595300837900125E0A1273ABC082C08390033056
:10596300126FCDD083D082C3E09CA3E09D500C1274
:10597300757AFAA3E01259816001090263D2FBEA46
:1059830075F00BA4FAA8F075F00BEBA428FB9003B9
:1059930032E02AF8A3E03B8882F583E0540F2274B7
:1059A300F71203F58908125E0A125EB0ACF075F0C7
:1059B3000BE9A42CF9900332E028FEA3E039FF742D
:1059C30001650860067402650870208A828B831261
:1059D3005E9C126A8074026508701B125D5B125E26
:1059E300E370138E828F83E4F0800BEA2403FCEBD5
:1059F300125E7E125E8AEEFAEFFB120BAC026705B3
:105A030074F41203F512796E79008E828F83E0604D
:105A130076890A890B8065E50A75F00BA4FAA8F06C
:105A230075F00BE50B12598E7046E50A75F00BA461
:105A3300F8AAF075F00BE50B125EC28E828F83E03D
:105A4300850882850983125FA4850882850983A35B
:105A5300126A80EE2403FCEF125E871265A91273AB
:105A630025AA08AB09120BAC7901900330126FE839
:105A7300E50A2401F50AE50B3400F50B125D63E535
:105A83000A9AE50B9B409002683974F51203F5EA14
:105A9300FEEBFF740B120B6F1265AE750A01EC4D32
:105AA300602BEC12798AED1273AB126A78790112CA
:105AB3000BB8E5084509606F850882850983A31241
:105AC30079787902AA08AB09120BB8805AE5084520
:105AD30009602B1273AF126CA21265AA125ECD700D
:105AE3000CEEFAEFFB120BBEE9F50A80CBEE2403B2
:105AF300FA125E0570317903EEFAEFFB80CA8E82EB
:105B03008F83A3E064FE7003A3E0F4700BEE240321
:105B13000A0A0A125E05700CEEFAEFFB120BBEE9DD
:105B2300F50A8003750A00A90A7F0302060D74F7BC
